{
  "_format": "hh-sol-artifact-1",
  "contractName": "OasisNFTforErc20",
  "sourceName": "contracts/OasisNFTforERC20.sol",
  "abi": [
    {
      "inputs": [
        {
          "internalType": "address",
          "name": "erc20TokenAddress",
          "type": "address"
        },
        {
          "internalType": "address",
          "name": "erc721TokenAddress",
          "type": "address"
        },
        {
          "internalType": "uint256",
          "name": "price",
          "type": "uint256"
        },
        {
          "internalType": "uint256",
          "name": "max",
          "type": "uint256"
        }
      ],
      "stateMutability": "nonpayable",
      "type": "constructor"
    },
    {
      "anonymous": false,
      "inputs": [],
      "name": "EndSaleEvent",
      "type": "event"
    },
    {
      "anonymous": false,
      "inputs": [
        {
          "indexed": true,
          "internalType": "address",
          "name": "previousOwner",
          "type": "address"
        },
        {
          "indexed": true,
          "internalType": "address",
          "name": "newOwner",
          "type": "address"
        }
      ],
      "name": "OwnershipTransferred",
      "type": "event"
    },
    {
      "anonymous": false,
      "inputs": [
        {
          "indexed": false,
          "internalType": "uint256",
          "name": "amount",
          "type": "uint256"
        }
      ],
      "name": "SetMaxEvent",
      "type": "event"
    },
    {
      "anonymous": false,
      "inputs": [
        {
          "indexed": false,
          "internalType": "uint256",
          "name": "amount",
          "type": "uint256"
        }
      ],
      "name": "SetPriceEvent",
      "type": "event"
    },
    {
      "anonymous": false,
      "inputs": [],
      "name": "StartSaleEvent",
      "type": "event"
    },
    {
      "anonymous": false,
      "inputs": [
        {
          "indexed": false,
          "internalType": "uint256",
          "name": "amount",
          "type": "uint256"
        }
      ],
      "name": "WithdrawERC20Event",
      "type": "event"
    },
    {
      "anonymous": false,
      "inputs": [
        {
          "indexed": false,
          "internalType": "uint256",
          "name": "amount",
          "type": "uint256"
        }
      ],
      "name": "WithdrawERC721Event",
      "type": "event"
    },
    {
      "inputs": [],
      "name": "acceptedERC20Token",
      "outputs": [
        {
          "internalType": "contract ERC20",
          "name": "",
          "type": "address"
        }
      ],
      "stateMutability": "view",
      "type": "function"
    },
    {
      "inputs": [
        {
          "internalType": "uint256",
          "name": "tokenAmountToBuy",
          "type": "uint256"
        }
      ],
      "name": "buyTokens",
      "outputs": [],
      "stateMutability": "nonpayable",
      "type": "function"
    },
    {
      "inputs": [],
      "name": "endSale",
      "outputs": [],
      "stateMutability": "nonpayable",
      "type": "function"
    },
    {
      "inputs": [],
      "name": "maxPerTx",
      "outputs": [
        {
          "internalType": "uint256",
          "name": "",
          "type": "uint256"
        }
      ],
      "stateMutability": "view",
      "type": "function"
    },
    {
      "inputs": [],
      "name": "nftForSale",
      "outputs": [
        {
          "internalType": "contract OasisNFT",
          "name": "",
          "type": "address"
        }
      ],
      "stateMutability": "view",
      "type": "function"
    },
    {
      "inputs": [
        {
          "internalType": "address",
          "name": "",
          "type": "address"
        },
        {
          "internalType": "address",
          "name": "",
          "type": "address"
        },
        {
          "internalType": "uint256",
          "name": "",
          "type": "uint256"
        },
        {
          "internalType": "bytes",
          "name": "",
          "type": "bytes"
        }
      ],
      "name": "onERC721Received",
      "outputs": [
        {
          "internalType": "bytes4",
          "name": "",
          "type": "bytes4"
        }
      ],
      "stateMutability": "nonpayable",
      "type": "function"
    },
    {
      "inputs": [],
      "name": "owner",
      "outputs": [
        {
          "internalType": "address",
          "name": "",
          "type": "address"
        }
      ],
      "stateMutability": "view",
      "type": "function"
    },
    {
      "inputs": [],
      "name": "renounceOwnership",
      "outputs": [],
      "stateMutability": "nonpayable",
      "type": "function"
    },
    {
      "inputs": [],
      "name": "saleActive",
      "outputs": [
        {
          "internalType": "bool",
          "name": "",
          "type": "bool"
        }
      ],
      "stateMutability": "view",
      "type": "function"
    },
    {
      "inputs": [
        {
          "internalType": "uint256",
          "name": "newMax",
          "type": "uint256"
        }
      ],
      "name": "setMax",
      "outputs": [],
      "stateMutability": "nonpayable",
      "type": "function"
    },
    {
      "inputs": [
        {
          "internalType": "uint256",
          "name": "newPrice",
          "type": "uint256"
        }
      ],
      "name": "setPrice",
      "outputs": [],
      "stateMutability": "nonpayable",
      "type": "function"
    },
    {
      "inputs": [],
      "name": "startSale",
      "outputs": [],
      "stateMutability": "nonpayable",
      "type": "function"
    },
    {
      "inputs": [],
      "name": "tokensPerNFT",
      "outputs": [
        {
          "internalType": "uint256",
          "name": "",
          "type": "uint256"
        }
      ],
      "stateMutability": "view",
      "type": "function"
    },
    {
      "inputs": [],
      "name": "tokensSold",
      "outputs": [
        {
          "internalType": "uint256",
          "name": "",
          "type": "uint256"
        }
      ],
      "stateMutability": "view",
      "type": "function"
    },
    {
      "inputs": [
        {
          "internalType": "address",
          "name": "newOwner",
          "type": "address"
        }
      ],
      "name": "transferOwnership",
      "outputs": [],
      "stateMutability": "nonpayable",
      "type": "function"
    },
    {
      "inputs": [],
      "name": "withdrawERC20",
      "outputs": [],
      "stateMutability": "nonpayable",
      "type": "function"
    },
    {
      "inputs": [
        {
          "internalType": "uint256[]",
          "name": "_ids",
          "type": "uint256[]"
        }
      ],
      "name": "withdrawERC721",
      "outputs": [],
      "stateMutability": "nonpayable",
      "type": "function"
    }
  ],
  "bytecode": "0x6080604052606460035560196004556000600560006101000a81548160ff02191690831515021790555060006006553480156200003b57600080fd5b506040516200280138038062002801833981810160405281019062000061919062000215565b62000081620000756200011b60201b60201c565b6200012360201b60201c565b83600160006101000a81548173ffffffffffffffffffffffffffffffffffffffff021916908373ffffffffffffffffffffffffffffffffffffffff16021790555082600260006101000a81548173ffffffffffffffffffffffffffffffffffffffff021916908373ffffffffffffffffffffffffffffffffffffffff160217905550816003819055508060048190555050505050620002f3565b600033905090565b60008060009054906101000a900473ffffffffffffffffffffffffffffffffffffffff169050816000806101000a81548173ffffffffffffffffffffffffffffffffffffffff021916908373ffffffffffffffffffffffffffffffffffffffff1602179055508173ffffffffffffffffffffffffffffffffffffffff168173ffffffffffffffffffffffffffffffffffffffff167f8be0079c531659141344cd1fd0a4f28419497f9722a3daafe3b4186f6b6457e060405160405180910390a35050565b600081519050620001f881620002bf565b92915050565b6000815190506200020f81620002d9565b92915050565b600080600080608085870312156200022c57600080fd5b60006200023c87828801620001e7565b94505060206200024f87828801620001e7565b93505060406200026287828801620001fe565b92505060606200027587828801620001fe565b91505092959194509250565b60006200028e8262000295565b9050919050565b600073ffffffffffffffffffffffffffffffffffffffff82169050919050565b6000819050919050565b620002ca8162000281565b8114620002d657600080fd5b50565b620002e481620002b5565b8114620002f057600080fd5b50565b6124fe80620003036000396000f3fe608060405234801561001057600080fd5b506004361061010b5760003560e01c80635afcc2f5116100a25780638da5cb5b116100715780638da5cb5b1461024857806391b7f5ed14610266578063b66a0e5d14610282578063f2fde38b1461028c578063f968adbe146102a85761010b565b80635afcc2f5146101e657806360d5a5f51461020457806368428a1b14610220578063715018a61461023e5761010b565b8063380d831b116100de578063380d831b146101825780634b938bc81461018c5780634e87193b146101aa578063518ab2a8146101c85761010b565b8063150b7a02146101105780631fe9eabc146101405780632ed6d5e81461015c5780633610724e14610166575b600080fd5b61012a60048036038101906101259190611850565b6102c6565b6040516101379190611c8a565b60405180910390f35b61015a60048036038101906101559190611935565b6102da565b005b6101646103da565b005b610180600480360381019061017b9190611935565b610676565b005b61018a610d14565b005b610194610dd9565b6040516101a19190611cc0565b60405180910390f35b6101b2610dff565b6040516101bf9190611ca5565b60405180910390f35b6101d0610e25565b6040516101dd9190611e9b565b60405180910390f35b6101ee610e2b565b6040516101fb9190611e9b565b60405180910390f35b61021e600480360381019061021991906118cb565b610e31565b005b610228611244565b6040516102359190611c6f565b60405180910390f35b610246611257565b005b6102506112df565b60405161025d9190611bcb565b60405180910390f35b610280600480360381019061027b9190611935565b611308565b005b61028a611408565b005b6102a660048036038101906102a191906117fe565b6114cd565b005b6102b06115c5565b6040516102bd9190611e9b565b60405180910390f35b600063150b7a0260e01b9050949350505050565b6102e26115cb565b73ffffffffffffffffffffffffffffffffffffffff166103006112df565b73ffffffffffffffffffffffffffffffffffffffff1614610356576040517f08c379a000000000000000000000000000000000000000000000000000000000815260040161034d90611d7b565b60405180910390fd5b60008111610399576040517f08c379a000000000000000000000000000000000000000000000000000000000815260040161039090611cdb565b60405180910390fd5b806004819055507f5bb810126553a211e8446c798313bf67200db9e80cf77ce355a537c840a527f1816040516103cf9190611e9b565b60405180910390a150565b6103e26115cb565b73ffffffffffffffffffffffffffffffffffffffff166104006112df565b73ffffffffffffffffffffffffffffffffffffffff1614610456576040517f08c379a000000000000000000000000000000000000000000000000000000000815260040161044d90611d7b565b60405180910390fd5b6000600160009054906101000a900473ffffffffffffffffffffffffffffffffffffffff1673ffffffffffffffffffffffffffffffffffffffff166370a08231306040518263ffffffff1660e01b81526004016104b39190611bcb565b60206040518083038186803b1580156104cb57600080fd5b505afa1580156104df573d6000803e3d6000fd5b505050506040513d601f19601f82011682018060405250810190610503919061195e565b905060008111610548576040517f08c379a000000000000000000000000000000000000000000000000000000000815260040161053f90611d9b565b60405180910390fd5b6000600160009054906101000a900473ffffffffffffffffffffffffffffffffffffffff1673ffffffffffffffffffffffffffffffffffffffff1663a9059cbb33846040518363ffffffff1660e01b81526004016105a7929190611c46565b602060405180830381600087803b1580156105c157600080fd5b505af11580156105d5573d6000803e3d6000fd5b505050506040513d601f19601f820116820180604052508101906105f9919061190c565b90508061063b576040517f08c379a000000000000000000000000000000000000000000000000000000000815260040161063290611d3b565b60405180910390fd5b7f19beec92a6cfdef21176ca1c703e8ecb6d0defaa0eb164e70cef908781b997ef8260405161066a9190611e9b565b60405180910390a15050565b600560009054906101000a900460ff166106c5576040517f08c379a00000000000000000000000000000000000000000000000000000000081526004016106bc90611d1b565b60405180910390fd5b60008111610708576040517f08c379a00000000000000000000000000000000000000000000000000000000081526004016106ff90611e5b565b60405180910390fd5b60045481111561074d576040517f08c379a000000000000000000000000000000000000000000000000000000000815260040161074490611e7b565b60405180910390fd5b6000600160009054906101000a900473ffffffffffffffffffffffffffffffffffffffff1673ffffffffffffffffffffffffffffffffffffffff1663dd62ed3e33306040518363ffffffff1660e01b81526004016107ac929190611be6565b60206040518083038186803b1580156107c457600080fd5b505afa1580156107d8573d6000803e3d6000fd5b505050506040513d601f19601f820116820180604052508101906107fc919061195e565b905060006003548361080e9190611f9f565b905081811115610853576040517f08c379a000000000000000000000000000000000000000000000000000000000815260040161084a90611ddb565b60405180910390fd5b6000600260009054906101000a900473ffffffffffffffffffffffffffffffffffffffff1673ffffffffffffffffffffffffffffffffffffffff166370a08231306040518263ffffffff1660e01b81526004016108b09190611bcb565b60206040518083038186803b1580156108c857600080fd5b505afa1580156108dc573d6000803e3d6000fd5b505050506040513d601f19601f82011682018060405250810190610900919061195e565b905083811015610945576040517f08c379a000000000000000000000000000000000000000000000000000000000815260040161093c90611d5b565b60405180910390fd5b60008467ffffffffffffffff811115610987577f4e487b7100000000000000000000000000000000000000000000000000000000600052604160045260246000fd5b6040519080825280602002602001820160405280156109b55781602001602082028036833780820191505090505b50905060005b85811015610ac857600260009054906101000a900473ffffffffffffffffffffffffffffffffffffffff1673ffffffffffffffffffffffffffffffffffffffff16632f745c5930836040518363ffffffff1660e01b8152600401610a20929190611c46565b60206040518083038186803b158015610a3857600080fd5b505afa158015610a4c573d6000803e3d6000fd5b505050506040513d601f19601f82011682018060405250810190610a70919061195e565b828281518110610aa9577f4e487b7100000000000000000000000000000000000000000000000000000000600052603260045260246000fd5b6020026020010181815250508080610ac0906120f5565b9150506109bb565b5084815114610b0c576040517f08c379a0000000000000000000000000000000000000000000000000000000008152600401610b0390611dfb565b60405180910390fd5b6000600160009054906101000a900473ffffffffffffffffffffffffffffffffffffffff1673ffffffffffffffffffffffffffffffffffffffff166323b872dd3330876040518463ffffffff1660e01b8152600401610b6d93929190611c0f565b602060405180830381600087803b158015610b8757600080fd5b505af1158015610b9b573d6000803e3d6000fd5b505050506040513d601f19601f82011682018060405250810190610bbf919061190c565b905080610c01576040517f08c379a0000000000000000000000000000000000000000000000000000000008152600401610bf890611dbb565b60405180910390fd5b60005b8251811015610d0b57600260009054906101000a900473ffffffffffffffffffffffffffffffffffffffff1673ffffffffffffffffffffffffffffffffffffffff166342842e0e3033868581518110610c86577f4e487b7100000000000000000000000000000000000000000000000000000000600052603260045260246000fd5b60200260200101516040518463ffffffff1660e01b8152600401610cac93929190611c0f565b600060405180830381600087803b158015610cc657600080fd5b505af1158015610cda573d6000803e3d6000fd5b50505050600160066000828254610cf19190611f49565b925050819055508080610d03906120f5565b915050610c04565b50505050505050565b610d1c6115cb565b73ffffffffffffffffffffffffffffffffffffffff16610d3a6112df565b73ffffffffffffffffffffffffffffffffffffffff1614610d90576040517f08c379a0000000000000000000000000000000000000000000000000000000008152600401610d8790611d7b565b60405180910390fd5b6000600560006101000a81548160ff0219169083151502179055507f6b304ef82d5790ab6a7d724c6936d180521df8760775a55f1aa9dbc663a5a13160405160405180910390a1565b600260009054906101000a900473ffffffffffffffffffffffffffffffffffffffff1681565b600160009054906101000a900473ffffffffffffffffffffffffffffffffffffffff1681565b60065481565b60035481565b610e396115cb565b73ffffffffffffffffffffffffffffffffffffffff16610e576112df565b73ffffffffffffffffffffffffffffffffffffffff1614610ead576040517f08c379a0000000000000000000000000000000000000000000000000000000008152600401610ea490611d7b565b60405180910390fd5b6000600260009054906101000a900473ffffffffffffffffffffffffffffffffffffffff1673ffffffffffffffffffffffffffffffffffffffff166370a08231306040518263ffffffff1660e01b8152600401610f0a9190611bcb565b60206040518083038186803b158015610f2257600080fd5b505afa158015610f36573d6000803e3d6000fd5b505050506040513d601f19601f82011682018060405250810190610f5a919061195e565b905060008111610f9f576040517f08c379a0000000000000000000000000000000000000000000000000000000008152600401610f9690611d9b565b60405180910390fd5b60005b8251811015611116573073ffffffffffffffffffffffffffffffffffffffff16600260009054906101000a900473ffffffffffffffffffffffffffffffffffffffff1673ffffffffffffffffffffffffffffffffffffffff16636352211e858481518110611039577f4e487b7100000000000000000000000000000000000000000000000000000000600052603260045260246000fd5b60200260200101516040518263ffffffff1660e01b815260040161105d9190611e9b565b60206040518083038186803b15801561107557600080fd5b505afa158015611089573d6000803e3d6000fd5b505050506040513d601f19601f820116820180604052508101906110ad9190611827565b73ffffffffffffffffffffffffffffffffffffffff1614611103576040517f08c379a00000000000000000000000000000000000000000000000000000000081526004016110fa90611e3b565b60405180910390fd5b808061110e906120f5565b915050610fa2565b5060005b825181101561120757600260009054906101000a900473ffffffffffffffffffffffffffffffffffffffff1673ffffffffffffffffffffffffffffffffffffffff166342842e0e303386858151811061119c577f4e487b7100000000000000000000000000000000000000000000000000000000600052603260045260246000fd5b60200260200101516040518463ffffffff1660e01b81526004016111c293929190611c0f565b600060405180830381600087803b1580156111dc57600080fd5b505af11580156111f0573d6000803e3d6000fd5b5050505080806111ff906120f5565b91505061111a565b507f0ebb7de4696ad4e77cd39160fa9541c64201c858f8db15271b1eb1ba5c998a5d82516040516112389190611e9b565b60405180910390a15050565b600560009054906101000a900460ff1681565b61125f6115cb565b73ffffffffffffffffffffffffffffffffffffffff1661127d6112df565b73ffffffffffffffffffffffffffffffffffffffff16146112d3576040517f08c379a00000000000000000000000000000000000000000000000000000000081526004016112ca90611d7b565b60405180910390fd5b6112dd60006115d3565b565b60008060009054906101000a900473ffffffffffffffffffffffffffffffffffffffff16905090565b6113106115cb565b73ffffffffffffffffffffffffffffffffffffffff1661132e6112df565b73ffffffffffffffffffffffffffffffffffffffff1614611384576040517f08c379a000000000000000000000000000000000000000000000000000000000815260040161137b90611d7b565b60405180910390fd5b600081116113c7576040517f08c379a00000000000000000000000000000000000000000000000000000000081526004016113be90611e1b565b60405180910390fd5b806003819055507f31e359b1185289055c0604ae116888e747f72c81468773eeea759c9d22444a2b816040516113fd9190611e9b565b60405180910390a150565b6114106115cb565b73ffffffffffffffffffffffffffffffffffffffff1661142e6112df565b73ffffffffffffffffffffffffffffffffffffffff1614611484576040517f08c379a000000000000000000000000000000000000000000000000000000000815260040161147b90611d7b565b60405180910390fd5b6001600560006101000a81548160ff0219169083151502179055507f6da77ed52db9d7bb842713f98a2f63785ba449eed679639b57674c7a3f30b87960405160405180910390a1565b6114d56115cb565b73ffffffffffffffffffffffffffffffffffffffff166114f36112df565b73ffffffffffffffffffffffffffffffffffffffff1614611549576040517f08c379a000000000000000000000000000000000000000000000000000000000815260040161154090611d7b565b60405180910390fd5b600073ffffffffffffffffffffffffffffffffffffffff168173ffffffffffffffffffffffffffffffffffffffff1614156115b9576040517f08c379a00000000000000000000000000000000000000000000000000000000081526004016115b090611cfb565b60405180910390fd5b6115c2816115d3565b50565b60045481565b600033905090565b60008060009054906101000a900473ffffffffffffffffffffffffffffffffffffffff169050816000806101000a81548173ffffffffffffffffffffffffffffffffffffffff021916908373ffffffffffffffffffffffffffffffffffffffff1602179055508173ffffffffffffffffffffffffffffffffffffffff168173ffffffffffffffffffffffffffffffffffffffff167f8be0079c531659141344cd1fd0a4f28419497f9722a3daafe3b4186f6b6457e060405160405180910390a35050565b60006116aa6116a584611edb565b611eb6565b905080838252602082019050828560208602820111156116c957600080fd5b60005b858110156116f957816116df88826117d4565b8452602084019350602083019250506001810190506116cc565b5050509392505050565b600061171661171184611f07565b611eb6565b90508281526020810184848401111561172e57600080fd5b6117398482856120b5565b509392505050565b60008135905061175081612483565b92915050565b60008151905061176581612483565b92915050565b600082601f83011261177c57600080fd5b813561178c848260208601611697565b91505092915050565b6000815190506117a48161249a565b92915050565b600082601f8301126117bb57600080fd5b81356117cb848260208601611703565b91505092915050565b6000813590506117e3816124b1565b92915050565b6000815190506117f8816124b1565b92915050565b60006020828403121561181057600080fd5b600061181e84828501611741565b91505092915050565b60006020828403121561183957600080fd5b600061184784828501611756565b91505092915050565b6000806000806080858703121561186657600080fd5b600061187487828801611741565b945050602061188587828801611741565b9350506040611896878288016117d4565b925050606085013567ffffffffffffffff8111156118b357600080fd5b6118bf878288016117aa565b91505092959194509250565b6000602082840312156118dd57600080fd5b600082013567ffffffffffffffff8111156118f757600080fd5b6119038482850161176b565b91505092915050565b60006020828403121561191e57600080fd5b600061192c84828501611795565b91505092915050565b60006020828403121561194757600080fd5b6000611955848285016117d4565b91505092915050565b60006020828403121561197057600080fd5b600061197e848285016117e9565b91505092915050565b61199081611ff9565b82525050565b61199f8161200b565b82525050565b6119ae81612017565b82525050565b6119bd8161206d565b82525050565b6119cc81612091565b82525050565b60006119df601983611f38565b91506119ea826121ad565b602082019050919050565b6000611a02602683611f38565b9150611a0d826121d6565b604082019050919050565b6000611a25600f83611f38565b9150611a3082612225565b602082019050919050565b6000611a48602e83611f38565b9150611a538261224e565b604082019050919050565b6000611a6b601983611f38565b9150611a768261229d565b602082019050919050565b6000611a8e602083611f38565b9150611a99826122c6565b602082019050919050565b6000611ab1602083611f38565b9150611abc826122ef565b602082019050919050565b6000611ad4603383611f38565b9150611adf82612318565b604082019050919050565b6000611af7601d83611f38565b9150611b0282612367565b602082019050919050565b6000611b1a602483611f38565b9150611b2582612390565b604082019050919050565b6000611b3d601b83611f38565b9150611b48826123df565b602082019050919050565b6000611b60601b83611f38565b9150611b6b82612408565b602082019050919050565b6000611b83601283611f38565b9150611b8e82612431565b602082019050919050565b6000611ba6601683611f38565b9150611bb18261245a565b602082019050919050565b611bc581612063565b82525050565b6000602082019050611be06000830184611987565b92915050565b6000604082019050611bfb6000830185611987565b611c086020830184611987565b9392505050565b6000606082019050611c246000830186611987565b611c316020830185611987565b611c3e6040830184611bbc565b949350505050565b6000604082019050611c5b6000830185611987565b611c686020830184611bbc565b9392505050565b6000602082019050611c846000830184611996565b92915050565b6000602082019050611c9f60008301846119a5565b92915050565b6000602082019050611cba60008301846119b4565b92915050565b6000602082019050611cd560008301846119c3565b92915050565b60006020820190508181036000830152611cf4816119d2565b9050919050565b60006020820190508181036000830152611d14816119f5565b9050919050565b60006020820190508181036000830152611d3481611a18565b9050919050565b60006020820190508181036000830152611d5481611a3b565b9050919050565b60006020820190508181036000830152611d7481611a5e565b9050919050565b60006020820190508181036000830152611d9481611a81565b9050919050565b60006020820190508181036000830152611db481611aa4565b9050919050565b60006020820190508181036000830152611dd481611ac7565b9050919050565b60006020820190508181036000830152611df481611aea565b9050919050565b60006020820190508181036000830152611e1481611b0d565b9050919050565b60006020820190508181036000830152611e3481611b30565b9050919050565b60006020820190508181036000830152611e5481611b53565b9050919050565b60006020820190508181036000830152611e7481611b76565b9050919050565b60006020820190508181036000830152611e9481611b99565b9050919050565b6000602082019050611eb06000830184611bbc565b92915050565b6000611ec0611ed1565b9050611ecc82826120c4565b919050565b6000604051905090565b600067ffffffffffffffff821115611ef657611ef561216d565b5b602082029050602081019050919050565b600067ffffffffffffffff821115611f2257611f2161216d565b5b611f2b8261219c565b9050602081019050919050565b600082825260208201905092915050565b6000611f5482612063565b9150611f5f83612063565b9250827fffffffffffffffffffffffffffffffffffffffffffffffffffffffffffffffff03821115611f9457611f9361213e565b5b828201905092915050565b6000611faa82612063565b9150611fb583612063565b9250817fffffffffffffffffffffffffffffffffffffffffffffffffffffffffffffffff0483118215151615611fee57611fed61213e565b5b828202905092915050565b600061200482612043565b9050919050565b60008115159050919050565b60007fffffffff0000000000000000000000000000000000000000000000000000000082169050919050565b600073ffffffffffffffffffffffffffffffffffffffff82169050919050565b6000819050919050565b60006120788261207f565b9050919050565b600061208a82612043565b9050919050565b600061209c826120a3565b9050919050565b60006120ae82612043565b9050919050565b82818337600083830152505050565b6120cd8261219c565b810181811067ffffffffffffffff821117156120ec576120eb61216d565b5b80604052505050565b600061210082612063565b91507fffffffffffffffffffffffffffffffffffffffffffffffffffffffffffffffff8214156121335761213261213e565b5b600182019050919050565b7f4e487b7100000000000000000000000000000000000000000000000000000000600052601160045260246000fd5b7f4e487b7100000000000000000000000000000000000000000000000000000000600052604160045260246000fd5b6000601f19601f8301169050919050565b7f4d6178206d75737420626520626967676572207468616e203000000000000000600082015250565b7f4f776e61626c653a206e6577206f776e657220697320746865207a65726f206160008201527f6464726573730000000000000000000000000000000000000000000000000000602082015250565b7f53616c65206e6f74206163746976650000000000000000000000000000000000600082015250565b7f4661696c656420746f2073656e642045524332302062616c616e63652062616360008201527f6b20746f20746865206f776e6572000000000000000000000000000000000000602082015250565b7f4e6f7420656e6f75676820746f6b656e7320746f2073656c6c00000000000000600082015250565b7f4f776e61626c653a2063616c6c6572206973206e6f7420746865206f776e6572600082015250565b7f4f776e657220686173206e6f2062616c616e636520746f205769746864726177600082015250565b7f4661696c656420746f207472616e7366657220455243323020746f6b656e732060008201527f66726f6d207573657220746f2076656e646f7200000000000000000000000000602082015250565b7f596f75722045524332302062616c616e636520697320746f6f206c6f77000000600082015250565b7f4572726f722073656c656374696e6720746f6b656e49447320746f207472616e60008201527f7366657200000000000000000000000000000000000000000000000000000000602082015250565b7f5072696365206d75737420626520626967676572207468616e20300000000000600082015250565b7f546f6b656e206e6f74206f776e656420627920636f6e74726163740000000000600082015250565b7f427579206d6f7265207468616e207a65726f0000000000000000000000000000600082015250565b7f43616e7420627579206d6f7265207468616e206d617800000000000000000000600082015250565b61248c81611ff9565b811461249757600080fd5b50565b6124a38161200b565b81146124ae57600080fd5b50565b6124ba81612063565b81146124c557600080fd5b5056fea2646970667358221220779d6b7b432428a58cac2627a80ccbf8f8f99f4d9e67340cbc85eed1285dfd7e64736f6c63430008040033",
  "linkReferences": {},
  "deployedLinkReferences": {}
}