{
  "_format": "hh-sol-artifact-1",
  "contractName": "OasisNFT",
  "sourceName": "contracts/OasisNFT.sol",
  "abi": [
    {
      "inputs": [
        {
          "internalType": "string",
          "name": "name_",
          "type": "string"
        },
        {
          "internalType": "string",
          "name": "symbol_",
          "type": "string"
        },
        {
          "internalType": "string",
          "name": "uri_",
          "type": "string"
        },
        {
          "internalType": "uint256",
          "name": "maxSupply_",
          "type": "uint256"
        }
      ],
      "stateMutability": "nonpayable",
      "type": "constructor"
    },
    {
      "anonymous": false,
      "inputs": [
        {
          "indexed": true,
          "internalType": "address",
          "name": "owner",
          "type": "address"
        },
        {
          "indexed": true,
          "internalType": "address",
          "name": "approved",
          "type": "address"
        },
        {
          "indexed": true,
          "internalType": "uint256",
          "name": "tokenId",
          "type": "uint256"
        }
      ],
      "name": "Approval",
      "type": "event"
    },
    {
      "anonymous": false,
      "inputs": [
        {
          "indexed": true,
          "internalType": "address",
          "name": "owner",
          "type": "address"
        },
        {
          "indexed": true,
          "internalType": "address",
          "name": "operator",
          "type": "address"
        },
        {
          "indexed": false,
          "internalType": "bool",
          "name": "approved",
          "type": "bool"
        }
      ],
      "name": "ApprovalForAll",
      "type": "event"
    },
    {
      "anonymous": false,
      "inputs": [
        {
          "indexed": true,
          "internalType": "address",
          "name": "previousOwner",
          "type": "address"
        },
        {
          "indexed": true,
          "internalType": "address",
          "name": "newOwner",
          "type": "address"
        }
      ],
      "name": "OwnershipTransferred",
      "type": "event"
    },
    {
      "anonymous": false,
      "inputs": [
        {
          "indexed": true,
          "internalType": "address",
          "name": "from",
          "type": "address"
        },
        {
          "indexed": true,
          "internalType": "address",
          "name": "to",
          "type": "address"
        },
        {
          "indexed": true,
          "internalType": "uint256",
          "name": "tokenId",
          "type": "uint256"
        }
      ],
      "name": "Transfer",
      "type": "event"
    },
    {
      "inputs": [
        {
          "internalType": "address",
          "name": "to",
          "type": "address"
        },
        {
          "internalType": "uint256",
          "name": "tokenId",
          "type": "uint256"
        }
      ],
      "name": "approve",
      "outputs": [],
      "stateMutability": "nonpayable",
      "type": "function"
    },
    {
      "inputs": [
        {
          "internalType": "address",
          "name": "owner",
          "type": "address"
        }
      ],
      "name": "balanceOf",
      "outputs": [
        {
          "internalType": "uint256",
          "name": "",
          "type": "uint256"
        }
      ],
      "stateMutability": "view",
      "type": "function"
    },
    {
      "inputs": [
        {
          "internalType": "address",
          "name": "to",
          "type": "address"
        },
        {
          "internalType": "uint256",
          "name": "number",
          "type": "uint256"
        }
      ],
      "name": "batchMint",
      "outputs": [],
      "stateMutability": "nonpayable",
      "type": "function"
    },
    {
      "inputs": [
        {
          "internalType": "uint256",
          "name": "tokenId",
          "type": "uint256"
        }
      ],
      "name": "getApproved",
      "outputs": [
        {
          "internalType": "address",
          "name": "",
          "type": "address"
        }
      ],
      "stateMutability": "view",
      "type": "function"
    },
    {
      "inputs": [],
      "name": "getOptionHash",
      "outputs": [
        {
          "internalType": "string",
          "name": "",
          "type": "string"
        }
      ],
      "stateMutability": "pure",
      "type": "function"
    },
    {
      "inputs": [
        {
          "internalType": "address",
          "name": "owner",
          "type": "address"
        },
        {
          "internalType": "address",
          "name": "operator",
          "type": "address"
        }
      ],
      "name": "isApprovedForAll",
      "outputs": [
        {
          "internalType": "bool",
          "name": "",
          "type": "bool"
        }
      ],
      "stateMutability": "view",
      "type": "function"
    },
    {
      "inputs": [],
      "name": "name",
      "outputs": [
        {
          "internalType": "string",
          "name": "",
          "type": "string"
        }
      ],
      "stateMutability": "view",
      "type": "function"
    },
    {
      "inputs": [],
      "name": "owner",
      "outputs": [
        {
          "internalType": "address",
          "name": "",
          "type": "address"
        }
      ],
      "stateMutability": "view",
      "type": "function"
    },
    {
      "inputs": [
        {
          "internalType": "uint256",
          "name": "tokenId",
          "type": "uint256"
        }
      ],
      "name": "ownerOf",
      "outputs": [
        {
          "internalType": "address",
          "name": "",
          "type": "address"
        }
      ],
      "stateMutability": "view",
      "type": "function"
    },
    {
      "inputs": [],
      "name": "renounceOwnership",
      "outputs": [],
      "stateMutability": "nonpayable",
      "type": "function"
    },
    {
      "inputs": [
        {
          "internalType": "address",
          "name": "to",
          "type": "address"
        }
      ],
      "name": "safeMint",
      "outputs": [],
      "stateMutability": "nonpayable",
      "type": "function"
    },
    {
      "inputs": [
        {
          "internalType": "address",
          "name": "from",
          "type": "address"
        },
        {
          "internalType": "address",
          "name": "to",
          "type": "address"
        },
        {
          "internalType": "uint256",
          "name": "tokenId",
          "type": "uint256"
        }
      ],
      "name": "safeTransferFrom",
      "outputs": [],
      "stateMutability": "nonpayable",
      "type": "function"
    },
    {
      "inputs": [
        {
          "internalType": "address",
          "name": "from",
          "type": "address"
        },
        {
          "internalType": "address",
          "name": "to",
          "type": "address"
        },
        {
          "internalType": "uint256",
          "name": "tokenId",
          "type": "uint256"
        },
        {
          "internalType": "bytes",
          "name": "_data",
          "type": "bytes"
        }
      ],
      "name": "safeTransferFrom",
      "outputs": [],
      "stateMutability": "nonpayable",
      "type": "function"
    },
    {
      "inputs": [
        {
          "internalType": "address",
          "name": "operator",
          "type": "address"
        },
        {
          "internalType": "bool",
          "name": "approved",
          "type": "bool"
        }
      ],
      "name": "setApprovalForAll",
      "outputs": [],
      "stateMutability": "nonpayable",
      "type": "function"
    },
    {
      "inputs": [
        {
          "internalType": "string",
          "name": "newuri",
          "type": "string"
        }
      ],
      "name": "setURI",
      "outputs": [],
      "stateMutability": "nonpayable",
      "type": "function"
    },
    {
      "inputs": [
        {
          "internalType": "bytes4",
          "name": "interfaceId",
          "type": "bytes4"
        }
      ],
      "name": "supportsInterface",
      "outputs": [
        {
          "internalType": "bool",
          "name": "",
          "type": "bool"
        }
      ],
      "stateMutability": "view",
      "type": "function"
    },
    {
      "inputs": [],
      "name": "symbol",
      "outputs": [
        {
          "internalType": "string",
          "name": "",
          "type": "string"
        }
      ],
      "stateMutability": "view",
      "type": "function"
    },
    {
      "inputs": [
        {
          "internalType": "uint256",
          "name": "index",
          "type": "uint256"
        }
      ],
      "name": "tokenByIndex",
      "outputs": [
        {
          "internalType": "uint256",
          "name": "",
          "type": "uint256"
        }
      ],
      "stateMutability": "view",
      "type": "function"
    },
    {
      "inputs": [
        {
          "internalType": "address",
          "name": "owner",
          "type": "address"
        },
        {
          "internalType": "uint256",
          "name": "index",
          "type": "uint256"
        }
      ],
      "name": "tokenOfOwnerByIndex",
      "outputs": [
        {
          "internalType": "uint256",
          "name": "",
          "type": "uint256"
        }
      ],
      "stateMutability": "view",
      "type": "function"
    },
    {
      "inputs": [
        {
          "internalType": "uint256",
          "name": "tokenId",
          "type": "uint256"
        }
      ],
      "name": "tokenURI",
      "outputs": [
        {
          "internalType": "string",
          "name": "",
          "type": "string"
        }
      ],
      "stateMutability": "view",
      "type": "function"
    },
    {
      "inputs": [],
      "name": "totalSupply",
      "outputs": [
        {
          "internalType": "uint256",
          "name": "",
          "type": "uint256"
        }
      ],
      "stateMutability": "view",
      "type": "function"
    },
    {
      "inputs": [
        {
          "internalType": "address",
          "name": "from",
          "type": "address"
        },
        {
          "internalType": "address",
          "name": "to",
          "type": "address"
        },
        {
          "internalType": "uint256",
          "name": "tokenId",
          "type": "uint256"
        }
      ],
      "name": "transferFrom",
      "outputs": [],
      "stateMutability": "nonpayable",
      "type": "function"
    },
    {
      "inputs": [
        {
          "internalType": "address",
          "name": "newOwner",
          "type": "address"
        }
      ],
      "name": "transferOwnership",
      "outputs": [],
      "stateMutability": "nonpayable",
      "type": "function"
    }
  ],
  "bytecode": "0x60806040523480156200001157600080fd5b5060405162003d3438038062003d348339818101604052810190620000379190620002be565b838381600090805190602001906200005192919062000185565b5080600190805190602001906200006a92919062000185565b5050506200008d62000081620000b760201b60201c565b620000bf60201b60201c565b81600c9080519060200190620000a592919062000185565b5080600d819055505050505062000509565b600033905090565b6000600a60009054906101000a900473ffffffffffffffffffffffffffffffffffffffff16905081600a60006101000a81548173ffffffffffffffffffffffffffffffffffffffff021916908373ffffffffffffffffffffffffffffffffffffffff1602179055508173ffffffffffffffffffffffffffffffffffffffff168173ffffffffffffffffffffffffffffffffffffffff167f8be0079c531659141344cd1fd0a4f28419497f9722a3daafe3b4186f6b6457e060405160405180910390a35050565b828054620001939062000414565b90600052602060002090601f016020900481019282620001b7576000855562000203565b82601f10620001d257805160ff191683800117855562000203565b8280016001018555821562000203579182015b8281111562000202578251825591602001919060010190620001e5565b5b50905062000212919062000216565b5090565b5b808211156200023157600081600090555060010162000217565b5090565b60006200024c62000246846200039e565b62000375565b9050828152602081018484840111156200026557600080fd5b62000272848285620003de565b509392505050565b600082601f8301126200028c57600080fd5b81516200029e84826020860162000235565b91505092915050565b600081519050620002b881620004ef565b92915050565b60008060008060808587031215620002d557600080fd5b600085015167ffffffffffffffff811115620002f057600080fd5b620002fe878288016200027a565b945050602085015167ffffffffffffffff8111156200031c57600080fd5b6200032a878288016200027a565b935050604085015167ffffffffffffffff8111156200034857600080fd5b62000356878288016200027a565b92505060606200036987828801620002a7565b91505092959194509250565b60006200038162000394565b90506200038f82826200044a565b919050565b6000604051905090565b600067ffffffffffffffff821115620003bc57620003bb620004af565b5b620003c782620004de565b9050602081019050919050565b6000819050919050565b60005b83811015620003fe578082015181840152602081019050620003e1565b838111156200040e576000848401525b50505050565b600060028204905060018216806200042d57607f821691505b6020821081141562000444576200044362000480565b5b50919050565b6200045582620004de565b810181811067ffffffffffffffff82111715620004775762000476620004af565b5b80604052505050565b7f4e487b7100000000000000000000000000000000000000000000000000000000600052602260045260246000fd5b7f4e487b7100000000000000000000000000000000000000000000000000000000600052604160045260246000fd5b6000601f19601f8301169050919050565b620004fa81620003d4565b81146200050657600080fd5b50565b61381b80620005196000396000f3fe608060405234801561001057600080fd5b506004361061014d5760003560e01c80634f6ccce7116100c3578063a22cb4651161007c578063a22cb4651461039c578063b88d4fde146103b8578063c87b56dd146103d4578063d5bbcdd214610404578063e985e9c514610422578063f2fde38b146104525761014d565b80634f6ccce7146102c65780636352211e146102f657806370a0823114610326578063715018a6146103565780638da5cb5b1461036057806395d89b411461037e5761014d565b806318160ddd1161011557806318160ddd1461020857806323b872dd146102265780632f745c591461024257806340d097c31461027257806342842e0e1461028e57806343508b05146102aa5761014d565b806301ffc9a71461015257806302fe53051461018257806306fdde031461019e578063081812fc146101bc578063095ea7b3146101ec575b600080fd5b61016c600480360381019061016791906126db565b61046e565b6040516101799190612b8b565b60405180910390f35b61019c6004803603810190610197919061272d565b610480565b005b6101a661049a565b6040516101b39190612ba6565b60405180910390f35b6101d660048036038101906101d1919061276e565b61052c565b6040516101e39190612b24565b60405180910390f35b6102066004803603810190610201919061269f565b6105b1565b005b6102106106c9565b60405161021d9190612e28565b60405180910390f35b610240600480360381019061023b9190612599565b6106d6565b005b61025c6004803603810190610257919061269f565b610736565b6040516102699190612e28565b60405180910390f35b61028c60048036038101906102879190612534565b6107db565b005b6102a860048036038101906102a39190612599565b6108d1565b005b6102c460048036038101906102bf919061269f565b6108f1565b005b6102e060048036038101906102db919061276e565b610999565b6040516102ed9190612e28565b60405180910390f35b610310600480360381019061030b919061276e565b610a30565b60405161031d9190612b24565b60405180910390f35b610340600480360381019061033b9190612534565b610ae2565b60405161034d9190612e28565b60405180910390f35b61035e610b9a565b005b610368610c22565b6040516103759190612b24565b60405180910390f35b610386610c4c565b6040516103939190612ba6565b60405180910390f35b6103b660048036038101906103b19190612663565b610cde565b005b6103d260048036038101906103cd91906125e8565b610e5f565b005b6103ee60048036038101906103e9919061276e565b610ec1565b6040516103fb9190612ba6565b60405180910390f35b61040c610f68565b6040516104199190612ba6565b60405180910390f35b61043c6004803603810190610437919061255d565b610f88565b6040516104499190612b8b565b60405180910390f35b61046c60048036038101906104679190612534565b61101c565b005b600061047982611114565b9050919050565b80600c9080519060200190610496929190612358565b5050565b6060600080546104a99061307e565b80601f01602080910402602001604051908101604052809291908181526020018280546104d59061307e565b80156105225780601f106104f757610100808354040283529160200191610522565b820191906000526020600020905b81548152906001019060200180831161050557829003601f168201915b5050505050905090565b60006105378261118e565b610576576040517f08c379a000000000000000000000000000000000000000000000000000000000815260040161056d90612d48565b60405180910390fd5b6004600083815260200190815260200160002060009054906101000a900473ffffffffffffffffffffffffffffffffffffffff169050919050565b60006105bc82610a30565b90508073ffffffffffffffffffffffffffffffffffffffff168373ffffffffffffffffffffffffffffffffffffffff16141561062d576040517f08c379a000000000000000000000000000000000000000000000000000000000815260040161062490612dc8565b60405180910390fd5b8073ffffffffffffffffffffffffffffffffffffffff1661064c6111fa565b73ffffffffffffffffffffffffffffffffffffffff16148061067b575061067a816106756111fa565b610f88565b5b6106ba576040517f08c379a00000000000000000000000000000000000000000000000000000000081526004016106b190612cc8565b60405180910390fd5b6106c48383611202565b505050565b6000600880549050905090565b6106e76106e16111fa565b826112bb565b610726576040517f08c379a000000000000000000000000000000000000000000000000000000000815260040161071d90612de8565b60405180910390fd5b610731838383611399565b505050565b600061074183610ae2565b8210610782576040517f08c379a000000000000000000000000000000000000000000000000000000000815260040161077990612be8565b60405180910390fd5b600660008473ffffffffffffffffffffffffffffffffffffffff1673ffffffffffffffffffffffffffffffffffffffff168152602001908152602001600020600083815260200190815260200160002054905092915050565b6107e36111fa565b73ffffffffffffffffffffffffffffffffffffffff16610801610c22565b73ffffffffffffffffffffffffffffffffffffffff1614610857576040517f08c379a000000000000000000000000000000000000000000000000000000000815260040161084e90612d68565b60405180910390fd5b6001600d546108669190612f94565b610870600b6115f5565b11156108b1576040517f08c379a00000000000000000000000000000000000000000000000000000000081526004016108a890612bc8565b60405180910390fd5b6108c4816108bf600b6115f5565b611603565b6108ce600b611621565b50565b6108ec83838360405180602001604052806000815250610e5f565b505050565b6108f96111fa565b73ffffffffffffffffffffffffffffffffffffffff16610917610c22565b73ffffffffffffffffffffffffffffffffffffffff161461096d576040517f08c379a000000000000000000000000000000000000000000000000000000000815260040161096490612d68565b60405180910390fd5b60005b8181101561099457610981836107db565b808061098c906130e1565b915050610970565b505050565b60006109a36106c9565b82106109e4576040517f08c379a00000000000000000000000000000000000000000000000000000000081526004016109db90612e08565b60405180910390fd5b60088281548110610a1e577f4e487b7100000000000000000000000000000000000000000000000000000000600052603260045260246000fd5b90600052602060002001549050919050565b6000806002600084815260200190815260200160002060009054906101000a900473ffffffffffffffffffffffffffffffffffffffff169050600073ffffffffffffffffffffffffffffffffffffffff168173ffffffffffffffffffffffffffffffffffffffff161415610ad9576040517f08c379a0000000000000000000000000000000000000000000000000000000008152600401610ad090612d08565b60405180910390fd5b80915050919050565b60008073ffffffffffffffffffffffffffffffffffffffff168273ffffffffffffffffffffffffffffffffffffffff161415610b53576040517f08c379a0000000000000000000000000000000000000000000000000000000008152600401610b4a90612ce8565b60405180910390fd5b600360008373ffffffffffffffffffffffffffffffffffffffff1673ffffffffffffffffffffffffffffffffffffffff168152602001908152602001600020549050919050565b610ba26111fa565b73ffffffffffffffffffffffffffffffffffffffff16610bc0610c22565b73ffffffffffffffffffffffffffffffffffffffff1614610c16576040517f08c379a0000000000000000000000000000000000000000000000000000000008152600401610c0d90612d68565b60405180910390fd5b610c206000611637565b565b6000600a60009054906101000a900473ffffffffffffffffffffffffffffffffffffffff16905090565b606060018054610c5b9061307e565b80601f0160208091040260200160405190810160405280929190818152602001828054610c879061307e565b8015610cd45780601f10610ca957610100808354040283529160200191610cd4565b820191906000526020600020905b815481529060010190602001808311610cb757829003601f168201915b5050505050905090565b610ce66111fa565b73ffffffffffffffffffffffffffffffffffffffff168273ffffffffffffffffffffffffffffffffffffffff161415610d54576040517f08c379a0000000000000000000000000000000000000000000000000000000008152600401610d4b90612c88565b60405180910390fd5b8060056000610d616111fa565b73ffffffffffffffffffffffffffffffffffffffff1673ffffffffffffffffffffffffffffffffffffffff16815260200190815260200160002060008473ffffffffffffffffffffffffffffffffffffffff1673ffffffffffffffffffffffffffffffffffffffff16815260200190815260200160002060006101000a81548160ff0219169083151502179055508173ffffffffffffffffffffffffffffffffffffffff16610e0e6111fa565b73ffffffffffffffffffffffffffffffffffffffff167f17307eab39ab6107e8899845ad3d59bd9653f200f220920489ca2b5937696c3183604051610e539190612b8b565b60405180910390a35050565b610e70610e6a6111fa565b836112bb565b610eaf576040517f08c379a0000000000000000000000000000000000000000000000000000000008152600401610ea690612de8565b60405180910390fd5b610ebb848484846116fd565b50505050565b6060610ecc8261118e565b610f0b576040517f08c379a0000000000000000000000000000000000000000000000000000000008152600401610f0290612da8565b60405180910390fd5b6000610f15611759565b90506000815111610f355760405180602001604052806000815250610f60565b80610f3f846117eb565b604051602001610f50929190612b00565b6040516020818303038152906040525b915050919050565b60606040518060800160405280604281526020016137a460429139905090565b6000600560008473ffffffffffffffffffffffffffffffffffffffff1673ffffffffffffffffffffffffffffffffffffffff16815260200190815260200160002060008373ffffffffffffffffffffffffffffffffffffffff1673ffffffffffffffffffffffffffffffffffffffff16815260200190815260200160002060009054906101000a900460ff16905092915050565b6110246111fa565b73ffffffffffffffffffffffffffffffffffffffff16611042610c22565b73ffffffffffffffffffffffffffffffffffffffff1614611098576040517f08c379a000000000000000000000000000000000000000000000000000000000815260040161108f90612d68565b60405180910390fd5b600073ffffffffffffffffffffffffffffffffffffffff168173ffffffffffffffffffffffffffffffffffffffff161415611108576040517f08c379a00000000000000000000000000000000000000000000000000000000081526004016110ff90612c28565b60405180910390fd5b61111181611637565b50565b60007f780e9d63000000000000000000000000000000000000000000000000000000007bffffffffffffffffffffffffffffffffffffffffffffffffffffffff1916827bffffffffffffffffffffffffffffffffffffffffffffffffffffffff19161480611187575061118682611998565b5b9050919050565b60008073ffffffffffffffffffffffffffffffffffffffff166002600084815260200190815260200160002060009054906101000a900473ffffffffffffffffffffffffffffffffffffffff1673ffffffffffffffffffffffffffffffffffffffff1614159050919050565b600033905090565b816004600083815260200190815260200160002060006101000a81548173ffffffffffffffffffffffffffffffffffffffff021916908373ffffffffffffffffffffffffffffffffffffffff160217905550808273ffffffffffffffffffffffffffffffffffffffff1661127583610a30565b73ffffffffffffffffffffffffffffffffffffffff167f8c5be1e5ebec7d5bd14f71427d1e84f3dd0314c0f7b2291e5b200ac8c7c3b92560405160405180910390a45050565b60006112c68261118e565b611305576040517f08c379a00000000000000000000000000000000000000000000000000000000081526004016112fc90612ca8565b60405180910390fd5b600061131083610a30565b90508073ffffffffffffffffffffffffffffffffffffffff168473ffffffffffffffffffffffffffffffffffffffff16148061137f57508373ffffffffffffffffffffffffffffffffffffffff166113678461052c565b73ffffffffffffffffffffffffffffffffffffffff16145b80611390575061138f8185610f88565b5b91505092915050565b8273ffffffffffffffffffffffffffffffffffffffff166113b982610a30565b73ffffffffffffffffffffffffffffffffffffffff161461140f576040517f08c379a000000000000000000000000000000000000000000000000000000000815260040161140690612d88565b60405180910390fd5b600073ffffffffffffffffffffffffffffffffffffffff168273ffffffffffffffffffffffffffffffffffffffff16141561147f576040517f08c379a000000000000000000000000000000000000000000000000000000000815260040161147690612c68565b60405180910390fd5b61148a838383611a7a565b611495600082611202565b6001600360008573ffffffffffffffffffffffffffffffffffffffff1673ffffffffffffffffffffffffffffffffffffffff16815260200190815260200160002060008282546114e59190612f94565b925050819055506001600360008473ffffffffffffffffffffffffffffffffffffffff1673ffffffffffffffffffffffffffffffffffffffff168152602001908152602001600020600082825461153c9190612f0d565b92505081905550816002600083815260200190815260200160002060006101000a81548173ffffffffffffffffffffffffffffffffffffffff021916908373ffffffffffffffffffffffffffffffffffffffff160217905550808273ffffffffffffffffffffffffffffffffffffffff168473ffffffffffffffffffffffffffffffffffffffff167fddf252ad1be2c89b69c2b068fc378daa952ba7f163c4a11628f55a4df523b3ef60405160405180910390a4505050565b600081600001549050919050565b61161d828260405180602001604052806000815250611a8a565b5050565b6001816000016000828254019250508190555050565b6000600a60009054906101000a900473ffffffffffffffffffffffffffffffffffffffff16905081600a60006101000a81548173ffffffffffffffffffffffffffffffffffffffff021916908373ffffffffffffffffffffffffffffffffffffffff1602179055508173ffffffffffffffffffffffffffffffffffffffff168173ffffffffffffffffffffffffffffffffffffffff167f8be0079c531659141344cd1fd0a4f28419497f9722a3daafe3b4186f6b6457e060405160405180910390a35050565b611708848484611399565b61171484848484611ae5565b611753576040517f08c379a000000000000000000000000000000000000000000000000000000000815260040161174a90612c08565b60405180910390fd5b50505050565b6060600c80546117689061307e565b80601f01602080910402602001604051908101604052809291908181526020018280546117949061307e565b80156117e15780601f106117b6576101008083540402835291602001916117e1565b820191906000526020600020905b8154815290600101906020018083116117c457829003601f168201915b5050505050905090565b60606000821415611833576040518060400160405280600181526020017f30000000000000000000000000000000000000000000000000000000000000008152509050611993565b600082905060005b6000821461186557808061184e906130e1565b915050600a8261185e9190612f63565b915061183b565b60008167ffffffffffffffff8111156118a7577f4e487b7100000000000000000000000000000000000000000000000000000000600052604160045260246000fd5b6040519080825280601f01601f1916602001820160405280156118d95781602001600182028036833780820191505090505b5090505b6000851461198c576001826118f29190612f94565b9150600a85611901919061312a565b603061190d9190612f0d565b60f81b818381518110611949577f4e487b7100000000000000000000000000000000000000000000000000000000600052603260045260246000fd5b60200101907effffffffffffffffffffffffffffffffffffffffffffffffffffffffffffff1916908160001a905350600a856119859190612f63565b94506118dd565b8093505050505b919050565b60007f80ac58cd000000000000000000000000000000000000000000000000000000007bffffffffffffffffffffffffffffffffffffffffffffffffffffffff1916827bffffffffffffffffffffffffffffffffffffffffffffffffffffffff19161480611a6357507f5b5e139f000000000000000000000000000000000000000000000000000000007bffffffffffffffffffffffffffffffffffffffffffffffffffffffff1916827bffffffffffffffffffffffffffffffffffffffffffffffffffffffff1916145b80611a735750611a7282611c7c565b5b9050919050565b611a85838383611ce6565b505050565b611a948383611dfa565b611aa16000848484611ae5565b611ae0576040517f08c379a0000000000000000000000000000000000000000000000000000000008152600401611ad790612c08565b60405180910390fd5b505050565b6000611b068473ffffffffffffffffffffffffffffffffffffffff16611fc8565b15611c6f578373ffffffffffffffffffffffffffffffffffffffff1663150b7a02611b2f6111fa565b8786866040518563ffffffff1660e01b8152600401611b519493929190612b3f565b602060405180830381600087803b158015611b6b57600080fd5b505af1925050508015611b9c57506040513d601f19601f82011682018060405250810190611b999190612704565b60015b611c1f573d8060008114611bcc576040519150601f19603f3d011682016040523d82523d6000602084013e611bd1565b606091505b50600081511415611c17576040517f08c379a0000000000000000000000000000000000000000000000000000000008152600401611c0e90612c08565b60405180910390fd5b805181602001fd5b63150b7a0260e01b7bffffffffffffffffffffffffffffffffffffffffffffffffffffffff1916817bffffffffffffffffffffffffffffffffffffffffffffffffffffffff191614915050611c74565b600190505b949350505050565b60007f01ffc9a7000000000000000000000000000000000000000000000000000000007bffffffffffffffffffffffffffffffffffffffffffffffffffffffff1916827bffffffffffffffffffffffffffffffffffffffffffffffffffffffff1916149050919050565b611cf1838383611fdb565b600073ffffffffffffffffffffffffffffffffffffffff168373ffffffffffffffffffffffffffffffffffffffff161415611d3457611d2f81611fe0565b611d73565b8173ffffffffffffffffffffffffffffffffffffffff168373ffffffffffffffffffffffffffffffffffffffff1614611d7257611d718382612029565b5b5b600073ffffffffffffffffffffffffffffffffffffffff168273ffffffffffffffffffffffffffffffffffffffff161415611db657611db181612196565b611df5565b8273ffffffffffffffffffffffffffffffffffffffff168273ffffffffffffffffffffffffffffffffffffffff1614611df457611df382826122d9565b5b5b505050565b600073ffffffffffffffffffffffffffffffffffffffff168273ffffffffffffffffffffffffffffffffffffffff161415611e6a576040517f08c379a0000000000000000000000000000000000000000000000000000000008152600401611e6190612d28565b60405180910390fd5b611e738161118e565b15611eb3576040517f08c379a0000000000000000000000000000000000000000000000000000000008152600401611eaa90612c48565b60405180910390fd5b611ebf60008383611a7a565b6001600360008473ffffffffffffffffffffffffffffffffffffffff1673ffffffffffffffffffffffffffffffffffffffff1681526020019081526020016000206000828254611f0f9190612f0d565b92505081905550816002600083815260200190815260200160002060006101000a81548173ffffffffffffffffffffffffffffffffffffffff021916908373ffffffffffffffffffffffffffffffffffffffff160217905550808273ffffffffffffffffffffffffffffffffffffffff16600073ffffffffffffffffffffffffffffffffffffffff167fddf252ad1be2c89b69c2b068fc378daa952ba7f163c4a11628f55a4df523b3ef60405160405180910390a45050565b600080823b905060008111915050919050565b505050565b6008805490506009600083815260200190815260200160002081905550600881908060018154018082558091505060019003906000526020600020016000909190919091505550565b6000600161203684610ae2565b6120409190612f94565b9050600060076000848152602001908152602001600020549050818114612125576000600660008673ffffffffffffffffffffffffffffffffffffffff1673ffffffffffffffffffffffffffffffffffffffff168152602001908152602001600020600084815260200190815260200160002054905080600660008773ffffffffffffffffffffffffffffffffffffffff1673ffffffffffffffffffffffffffffffffffffffff168152602001908152602001600020600084815260200190815260200160002081905550816007600083815260200190815260200160002081905550505b6007600084815260200190815260200160002060009055600660008573ffffffffffffffffffffffffffffffffffffffff1673ffffffffffffffffffffffffffffffffffffffff16815260200190815260200160002060008381526020019081526020016000206000905550505050565b600060016008805490506121aa9190612f94565b9050600060096000848152602001908152602001600020549050600060088381548110612200577f4e487b7100000000000000000000000000000000000000000000000000000000600052603260045260246000fd5b906000526020600020015490508060088381548110612248577f4e487b7100000000000000000000000000000000000000000000000000000000600052603260045260246000fd5b9060005260206000200181905550816009600083815260200190815260200160002081905550600960008581526020019081526020016000206000905560088054806122bd577f4e487b7100000000000000000000000000000000000000000000000000000000600052603160045260246000fd5b6001900381819060005260206000200160009055905550505050565b60006122e483610ae2565b905081600660008573ffffffffffffffffffffffffffffffffffffffff1673ffffffffffffffffffffffffffffffffffffffff168152602001908152602001600020600083815260200190815260200160002081905550806007600084815260200190815260200160002081905550505050565b8280546123649061307e565b90600052602060002090601f01602090048101928261238657600085556123cd565b82601f1061239f57805160ff19168380011785556123cd565b828001600101855582156123cd579182015b828111156123cc5782518255916020019190600101906123b1565b5b5090506123da91906123de565b5090565b5b808211156123f75760008160009055506001016123df565b5090565b600061240e61240984612e68565b612e43565b90508281526020810184848401111561242657600080fd5b61243184828561303c565b509392505050565b600061244c61244784612e99565b612e43565b90508281526020810184848401111561246457600080fd5b61246f84828561303c565b509392505050565b60008135905061248681613747565b92915050565b60008135905061249b8161375e565b92915050565b6000813590506124b081613775565b92915050565b6000815190506124c581613775565b92915050565b600082601f8301126124dc57600080fd5b81356124ec8482602086016123fb565b91505092915050565b600082601f83011261250657600080fd5b8135612516848260208601612439565b91505092915050565b60008135905061252e8161378c565b92915050565b60006020828403121561254657600080fd5b600061255484828501612477565b91505092915050565b6000806040838503121561257057600080fd5b600061257e85828601612477565b925050602061258f85828601612477565b9150509250929050565b6000806000606084860312156125ae57600080fd5b60006125bc86828701612477565b93505060206125cd86828701612477565b92505060406125de8682870161251f565b9150509250925092565b600080600080608085870312156125fe57600080fd5b600061260c87828801612477565b945050602061261d87828801612477565b935050604061262e8782880161251f565b925050606085013567ffffffffffffffff81111561264b57600080fd5b612657878288016124cb565b91505092959194509250565b6000806040838503121561267657600080fd5b600061268485828601612477565b92505060206126958582860161248c565b9150509250929050565b600080604083850312156126b257600080fd5b60006126c085828601612477565b92505060206126d18582860161251f565b9150509250929050565b6000602082840312156126ed57600080fd5b60006126fb848285016124a1565b91505092915050565b60006020828403121561271657600080fd5b6000612724848285016124b6565b91505092915050565b60006020828403121561273f57600080fd5b600082013567ffffffffffffffff81111561275957600080fd5b612765848285016124f5565b91505092915050565b60006020828403121561278057600080fd5b600061278e8482850161251f565b91505092915050565b6127a081612fc8565b82525050565b6127af81612fda565b82525050565b60006127c082612eca565b6127ca8185612ee0565b93506127da81856020860161304b565b6127e381613217565b840191505092915050565b60006127f982612ed5565b6128038185612ef1565b935061281381856020860161304b565b61281c81613217565b840191505092915050565b600061283282612ed5565b61283c8185612f02565b935061284c81856020860161304b565b80840191505092915050565b6000612865601183612ef1565b915061287082613228565b602082019050919050565b6000612888602b83612ef1565b915061289382613251565b604082019050919050565b60006128ab603283612ef1565b91506128b6826132a0565b604082019050919050565b60006128ce602683612ef1565b91506128d9826132ef565b604082019050919050565b60006128f1601c83612ef1565b91506128fc8261333e565b602082019050919050565b6000612914602483612ef1565b915061291f82613367565b604082019050919050565b6000612937601983612ef1565b9150612942826133b6565b602082019050919050565b600061295a602c83612ef1565b9150612965826133df565b604082019050919050565b600061297d603883612ef1565b91506129888261342e565b604082019050919050565b60006129a0602a83612ef1565b91506129ab8261347d565b604082019050919050565b60006129c3602983612ef1565b91506129ce826134cc565b604082019050919050565b60006129e6602083612ef1565b91506129f18261351b565b602082019050919050565b6000612a09602c83612ef1565b9150612a1482613544565b604082019050919050565b6000612a2c602083612ef1565b9150612a3782613593565b602082019050919050565b6000612a4f602983612ef1565b9150612a5a826135bc565b604082019050919050565b6000612a72602f83612ef1565b9150612a7d8261360b565b604082019050919050565b6000612a95602183612ef1565b9150612aa08261365a565b604082019050919050565b6000612ab8603183612ef1565b9150612ac3826136a9565b604082019050919050565b6000612adb602c83612ef1565b9150612ae6826136f8565b604082019050919050565b612afa81613032565b82525050565b6000612b0c8285612827565b9150612b188284612827565b91508190509392505050565b6000602082019050612b396000830184612797565b92915050565b6000608082019050612b546000830187612797565b612b616020830186612797565b612b6e6040830185612af1565b8181036060830152612b8081846127b5565b905095945050505050565b6000602082019050612ba060008301846127a6565b92915050565b60006020820190508181036000830152612bc081846127ee565b905092915050565b60006020820190508181036000830152612be181612858565b9050919050565b60006020820190508181036000830152612c018161287b565b9050919050565b60006020820190508181036000830152612c218161289e565b9050919050565b60006020820190508181036000830152612c41816128c1565b9050919050565b60006020820190508181036000830152612c61816128e4565b9050919050565b60006020820190508181036000830152612c8181612907565b9050919050565b60006020820190508181036000830152612ca18161292a565b9050919050565b60006020820190508181036000830152612cc18161294d565b9050919050565b60006020820190508181036000830152612ce181612970565b9050919050565b60006020820190508181036000830152612d0181612993565b9050919050565b60006020820190508181036000830152612d21816129b6565b9050919050565b60006020820190508181036000830152612d41816129d9565b9050919050565b60006020820190508181036000830152612d61816129fc565b9050919050565b60006020820190508181036000830152612d8181612a1f565b9050919050565b60006020820190508181036000830152612da181612a42565b9050919050565b60006020820190508181036000830152612dc181612a65565b9050919050565b60006020820190508181036000830152612de181612a88565b9050919050565b60006020820190508181036000830152612e0181612aab565b9050919050565b60006020820190508181036000830152612e2181612ace565b9050919050565b6000602082019050612e3d6000830184612af1565b92915050565b6000612e4d612e5e565b9050612e5982826130b0565b919050565b6000604051905090565b600067ffffffffffffffff821115612e8357612e826131e8565b5b612e8c82613217565b9050602081019050919050565b600067ffffffffffffffff821115612eb457612eb36131e8565b5b612ebd82613217565b9050602081019050919050565b600081519050919050565b600081519050919050565b600082825260208201905092915050565b600082825260208201905092915050565b600081905092915050565b6000612f1882613032565b9150612f2383613032565b9250827fffffffffffffffffffffffffffffffffffffffffffffffffffffffffffffffff03821115612f5857612f5761315b565b5b828201905092915050565b6000612f6e82613032565b9150612f7983613032565b925082612f8957612f8861318a565b5b828204905092915050565b6000612f9f82613032565b9150612faa83613032565b925082821015612fbd57612fbc61315b565b5b828203905092915050565b6000612fd382613012565b9050919050565b60008115159050919050565b60007fffffffff0000000000000000000000000000000000000000000000000000000082169050919050565b600073ffffffffffffffffffffffffffffffffffffffff82169050919050565b6000819050919050565b82818337600083830152505050565b60005b8381101561306957808201518184015260208101905061304e565b83811115613078576000848401525b50505050565b6000600282049050600182168061309657607f821691505b602082108114156130aa576130a96131b9565b5b50919050565b6130b982613217565b810181811067ffffffffffffffff821117156130d8576130d76131e8565b5b80604052505050565b60006130ec82613032565b91507fffffffffffffffffffffffffffffffffffffffffffffffffffffffffffffffff82141561311f5761311e61315b565b5b600182019050919050565b600061313582613032565b915061314083613032565b9250826131505761314f61318a565b5b828206905092915050565b7f4e487b7100000000000000000000000000000000000000000000000000000000600052601160045260246000fd5b7f4e487b7100000000000000000000000000000000000000000000000000000000600052601260045260246000fd5b7f4e487b7100000000000000000000000000000000000000000000000000000000600052602260045260246000fd5b7f4e487b7100000000000000000000000000000000000000000000000000000000600052604160045260246000fd5b6000601f19601f8301169050919050565b7f4d617820616d6f756e74206d696e746564000000000000000000000000000000600082015250565b7f455243373231456e756d657261626c653a206f776e657220696e646578206f7560008201527f74206f6620626f756e6473000000000000000000000000000000000000000000602082015250565b7f4552433732313a207472616e7366657220746f206e6f6e20455243373231526560008201527f63656976657220696d706c656d656e7465720000000000000000000000000000602082015250565b7f4f776e61626c653a206e6577206f776e657220697320746865207a65726f206160008201527f6464726573730000000000000000000000000000000000000000000000000000602082015250565b7f4552433732313a20746f6b656e20616c7265616479206d696e74656400000000600082015250565b7f4552433732313a207472616e7366657220746f20746865207a65726f2061646460008201527f7265737300000000000000000000000000000000000000000000000000000000602082015250565b7f4552433732313a20617070726f766520746f2063616c6c657200000000000000600082015250565b7f4552433732313a206f70657261746f7220717565727920666f72206e6f6e657860008201527f697374656e7420746f6b656e0000000000000000000000000000000000000000602082015250565b7f4552433732313a20617070726f76652063616c6c6572206973206e6f74206f7760008201527f6e6572206e6f7220617070726f76656420666f7220616c6c0000000000000000602082015250565b7f4552433732313a2062616c616e636520717565727920666f7220746865207a6560008201527f726f206164647265737300000000000000000000000000000000000000000000602082015250565b7f4552433732313a206f776e657220717565727920666f72206e6f6e657869737460008201527f656e7420746f6b656e0000000000000000000000000000000000000000000000602082015250565b7f4552433732313a206d696e7420746f20746865207a65726f2061646472657373600082015250565b7f4552433732313a20617070726f76656420717565727920666f72206e6f6e657860008201527f697374656e7420746f6b656e0000000000000000000000000000000000000000602082015250565b7f4f776e61626c653a2063616c6c6572206973206e6f7420746865206f776e6572600082015250565b7f4552433732313a207472616e73666572206f6620746f6b656e2074686174206960008201527f73206e6f74206f776e0000000000000000000000000000000000000000000000602082015250565b7f4552433732314d657461646174613a2055524920717565727920666f72206e6f60008201527f6e6578697374656e7420746f6b656e0000000000000000000000000000000000602082015250565b7f4552433732313a20617070726f76616c20746f2063757272656e74206f776e6560008201527f7200000000000000000000000000000000000000000000000000000000000000602082015250565b7f4552433732313a207472616e736665722063616c6c6572206973206e6f74206f60008201527f776e6572206e6f7220617070726f766564000000000000000000000000000000602082015250565b7f455243373231456e756d657261626c653a20676c6f62616c20696e646578206f60008201527f7574206f6620626f756e64730000000000000000000000000000000000000000602082015250565b61375081612fc8565b811461375b57600080fd5b50565b61376781612fda565b811461377257600080fd5b50565b61377e81612fe6565b811461378957600080fd5b50565b61379581613032565b81146137a057600080fd5b5056fe307834623463326134613965613266623562313630363334353433363965616434643838363937363438666262653465333066353232346537316336356364313336a26469706673582212208b210beb763763719e4db942dbd0df949ccbdb89ff3b124aa09d06d30c78193064736f6c63430008040033",
  "linkReferences": {},
  "deployedLinkReferences": {}
}