{
  "_format": "hh-sol-artifact-1",
  "contractName": "NFTEX",
  "sourceName": "contracts/NFTEX.sol",
  "abi": [
    {
      "inputs": [
        {
          "internalType": "uint16",
          "name": "_feePercent",
          "type": "uint16"
        }
      ],
      "stateMutability": "nonpayable",
      "type": "constructor"
    },
    {
      "anonymous": false,
      "inputs": [
        {
          "indexed": true,
          "internalType": "contract IERC721",
          "name": "token",
          "type": "address"
        },
        {
          "indexed": false,
          "internalType": "uint256",
          "name": "id",
          "type": "uint256"
        },
        {
          "indexed": true,
          "internalType": "bytes32",
          "name": "hash",
          "type": "bytes32"
        },
        {
          "indexed": false,
          "internalType": "address",
          "name": "bidder",
          "type": "address"
        },
        {
          "indexed": false,
          "internalType": "uint256",
          "name": "bidPrice",
          "type": "uint256"
        }
      ],
      "name": "Bid",
      "type": "event"
    },
    {
      "anonymous": false,
      "inputs": [
        {
          "indexed": true,
          "internalType": "contract IERC721",
          "name": "token",
          "type": "address"
        },
        {
          "indexed": false,
          "internalType": "uint256",
          "name": "id",
          "type": "uint256"
        },
        {
          "indexed": true,
          "internalType": "bytes32",
          "name": "hash",
          "type": "bytes32"
        },
        {
          "indexed": false,
          "internalType": "address",
          "name": "seller",
          "type": "address"
        }
      ],
      "name": "CancelOrder",
      "type": "event"
    },
    {
      "anonymous": false,
      "inputs": [
        {
          "indexed": true,
          "internalType": "contract IERC721",
          "name": "token",
          "type": "address"
        },
        {
          "indexed": false,
          "internalType": "uint256",
          "name": "id",
          "type": "uint256"
        },
        {
          "indexed": true,
          "internalType": "bytes32",
          "name": "hash",
          "type": "bytes32"
        },
        {
          "indexed": false,
          "internalType": "address",
          "name": "seller",
          "type": "address"
        },
        {
          "indexed": false,
          "internalType": "address",
          "name": "taker",
          "type": "address"
        },
        {
          "indexed": false,
          "internalType": "uint256",
          "name": "price",
          "type": "uint256"
        }
      ],
      "name": "Claim",
      "type": "event"
    },
    {
      "anonymous": false,
      "inputs": [
        {
          "indexed": true,
          "internalType": "contract IERC721",
          "name": "token",
          "type": "address"
        },
        {
          "indexed": false,
          "internalType": "uint256",
          "name": "id",
          "type": "uint256"
        },
        {
          "indexed": true,
          "internalType": "bytes32",
          "name": "hash",
          "type": "bytes32"
        },
        {
          "indexed": false,
          "internalType": "address",
          "name": "seller",
          "type": "address"
        }
      ],
      "name": "MakeOrder",
      "type": "event"
    },
    {
      "anonymous": false,
      "inputs": [
        {
          "indexed": true,
          "internalType": "address",
          "name": "previousOwner",
          "type": "address"
        },
        {
          "indexed": true,
          "internalType": "address",
          "name": "newOwner",
          "type": "address"
        }
      ],
      "name": "OwnershipTransferred",
      "type": "event"
    },
    {
      "inputs": [
        {
          "internalType": "bytes32",
          "name": "_order",
          "type": "bytes32"
        }
      ],
      "name": "bid",
      "outputs": [],
      "stateMutability": "payable",
      "type": "function"
    },
    {
      "inputs": [
        {
          "internalType": "bytes32[]",
          "name": "_ids",
          "type": "bytes32[]"
        }
      ],
      "name": "bulkCancel",
      "outputs": [],
      "stateMutability": "nonpayable",
      "type": "function"
    },
    {
      "inputs": [
        {
          "internalType": "bytes32[]",
          "name": "_ids",
          "type": "bytes32[]"
        }
      ],
      "name": "bulkClaim",
      "outputs": [],
      "stateMutability": "nonpayable",
      "type": "function"
    },
    {
      "inputs": [
        {
          "internalType": "contract IERC721",
          "name": "_token",
          "type": "address"
        },
        {
          "internalType": "uint256[]",
          "name": "_ids",
          "type": "uint256[]"
        },
        {
          "internalType": "uint256",
          "name": "_startPrice",
          "type": "uint256"
        },
        {
          "internalType": "uint256",
          "name": "_endPrice",
          "type": "uint256"
        },
        {
          "internalType": "uint256",
          "name": "_endBlock",
          "type": "uint256"
        },
        {
          "internalType": "uint256",
          "name": "_type",
          "type": "uint256"
        }
      ],
      "name": "bulkList",
      "outputs": [],
      "stateMutability": "nonpayable",
      "type": "function"
    },
    {
      "inputs": [
        {
          "internalType": "bytes32",
          "name": "_order",
          "type": "bytes32"
        }
      ],
      "name": "buyItNow",
      "outputs": [],
      "stateMutability": "payable",
      "type": "function"
    },
    {
      "inputs": [
        {
          "internalType": "bytes32",
          "name": "_order",
          "type": "bytes32"
        }
      ],
      "name": "cancelOrder",
      "outputs": [],
      "stateMutability": "nonpayable",
      "type": "function"
    },
    {
      "inputs": [
        {
          "internalType": "bytes32",
          "name": "_order",
          "type": "bytes32"
        }
      ],
      "name": "claim",
      "outputs": [],
      "stateMutability": "nonpayable",
      "type": "function"
    },
    {
      "inputs": [
        {
          "internalType": "contract IERC721",
          "name": "_token",
          "type": "address"
        },
        {
          "internalType": "uint256",
          "name": "_id",
          "type": "uint256"
        },
        {
          "internalType": "uint256",
          "name": "_startPrice",
          "type": "uint256"
        },
        {
          "internalType": "uint256",
          "name": "_endPrice",
          "type": "uint256"
        },
        {
          "internalType": "uint256",
          "name": "_endBlock",
          "type": "uint256"
        }
      ],
      "name": "dutchAuction",
      "outputs": [],
      "stateMutability": "nonpayable",
      "type": "function"
    },
    {
      "inputs": [
        {
          "internalType": "contract IERC721",
          "name": "_token",
          "type": "address"
        },
        {
          "internalType": "uint256",
          "name": "_id",
          "type": "uint256"
        },
        {
          "internalType": "uint256",
          "name": "_startPrice",
          "type": "uint256"
        },
        {
          "internalType": "uint256",
          "name": "_endBlock",
          "type": "uint256"
        }
      ],
      "name": "englishAuction",
      "outputs": [],
      "stateMutability": "nonpayable",
      "type": "function"
    },
    {
      "inputs": [],
      "name": "feeAddress",
      "outputs": [
        {
          "internalType": "address",
          "name": "",
          "type": "address"
        }
      ],
      "stateMutability": "view",
      "type": "function"
    },
    {
      "inputs": [],
      "name": "feePercent",
      "outputs": [
        {
          "internalType": "uint16",
          "name": "",
          "type": "uint16"
        }
      ],
      "stateMutability": "view",
      "type": "function"
    },
    {
      "inputs": [
        {
          "internalType": "contract IERC721",
          "name": "_token",
          "type": "address"
        },
        {
          "internalType": "uint256",
          "name": "_id",
          "type": "uint256"
        },
        {
          "internalType": "uint256",
          "name": "_price",
          "type": "uint256"
        },
        {
          "internalType": "uint256",
          "name": "_endBlock",
          "type": "uint256"
        }
      ],
      "name": "fixedPrice",
      "outputs": [],
      "stateMutability": "nonpayable",
      "type": "function"
    },
    {
      "inputs": [
        {
          "internalType": "bytes32",
          "name": "_order",
          "type": "bytes32"
        }
      ],
      "name": "getCurrentPrice",
      "outputs": [
        {
          "internalType": "uint256",
          "name": "",
          "type": "uint256"
        }
      ],
      "stateMutability": "view",
      "type": "function"
    },
    {
      "inputs": [
        {
          "internalType": "address",
          "name": "",
          "type": "address"
        },
        {
          "internalType": "address",
          "name": "",
          "type": "address"
        },
        {
          "internalType": "uint256",
          "name": "",
          "type": "uint256"
        },
        {
          "internalType": "bytes",
          "name": "",
          "type": "bytes"
        }
      ],
      "name": "onERC721Received",
      "outputs": [
        {
          "internalType": "bytes4",
          "name": "",
          "type": "bytes4"
        }
      ],
      "stateMutability": "nonpayable",
      "type": "function"
    },
    {
      "inputs": [
        {
          "internalType": "address",
          "name": "",
          "type": "address"
        },
        {
          "internalType": "uint256",
          "name": "",
          "type": "uint256"
        }
      ],
      "name": "orderIdBySeller",
      "outputs": [
        {
          "internalType": "bytes32",
          "name": "",
          "type": "bytes32"
        }
      ],
      "stateMutability": "view",
      "type": "function"
    },
    {
      "inputs": [
        {
          "internalType": "contract IERC721",
          "name": "",
          "type": "address"
        },
        {
          "internalType": "uint256",
          "name": "",
          "type": "uint256"
        },
        {
          "internalType": "uint256",
          "name": "",
          "type": "uint256"
        }
      ],
      "name": "orderIdByToken",
      "outputs": [
        {
          "internalType": "bytes32",
          "name": "",
          "type": "bytes32"
        }
      ],
      "stateMutability": "view",
      "type": "function"
    },
    {
      "inputs": [
        {
          "internalType": "bytes32",
          "name": "",
          "type": "bytes32"
        }
      ],
      "name": "orderInfo",
      "outputs": [
        {
          "internalType": "uint8",
          "name": "orderType",
          "type": "uint8"
        },
        {
          "internalType": "address",
          "name": "seller",
          "type": "address"
        },
        {
          "internalType": "contract IERC721",
          "name": "token",
          "type": "address"
        },
        {
          "internalType": "uint256",
          "name": "tokenId",
          "type": "uint256"
        },
        {
          "internalType": "uint256",
          "name": "startPrice",
          "type": "uint256"
        },
        {
          "internalType": "uint256",
          "name": "endPrice",
          "type": "uint256"
        },
        {
          "internalType": "uint256",
          "name": "startBlock",
          "type": "uint256"
        },
        {
          "internalType": "uint256",
          "name": "endBlock",
          "type": "uint256"
        },
        {
          "internalType": "uint256",
          "name": "lastBidPrice",
          "type": "uint256"
        },
        {
          "internalType": "address",
          "name": "lastBidder",
          "type": "address"
        },
        {
          "internalType": "bool",
          "name": "isSold",
          "type": "bool"
        }
      ],
      "stateMutability": "view",
      "type": "function"
    },
    {
      "inputs": [],
      "name": "owner",
      "outputs": [
        {
          "internalType": "address",
          "name": "",
          "type": "address"
        }
      ],
      "stateMutability": "view",
      "type": "function"
    },
    {
      "inputs": [],
      "name": "renounceOwnership",
      "outputs": [],
      "stateMutability": "nonpayable",
      "type": "function"
    },
    {
      "inputs": [
        {
          "internalType": "address",
          "name": "_seller",
          "type": "address"
        }
      ],
      "name": "sellerOrderLength",
      "outputs": [
        {
          "internalType": "uint256",
          "name": "",
          "type": "uint256"
        }
      ],
      "stateMutability": "view",
      "type": "function"
    },
    {
      "inputs": [
        {
          "internalType": "address",
          "name": "_feeAddress",
          "type": "address"
        }
      ],
      "name": "setFeeAddress",
      "outputs": [],
      "stateMutability": "nonpayable",
      "type": "function"
    },
    {
      "inputs": [
        {
          "internalType": "contract IERC721",
          "name": "_token",
          "type": "address"
        },
        {
          "internalType": "uint256",
          "name": "_id",
          "type": "uint256"
        }
      ],
      "name": "tokenOrderLength",
      "outputs": [
        {
          "internalType": "uint256",
          "name": "",
          "type": "uint256"
        }
      ],
      "stateMutability": "view",
      "type": "function"
    },
    {
      "inputs": [
        {
          "internalType": "address",
          "name": "newOwner",
          "type": "address"
        }
      ],
      "name": "transferOwnership",
      "outputs": [],
      "stateMutability": "nonpayable",
      "type": "function"
    },
    {
      "inputs": [
        {
          "internalType": "uint16",
          "name": "_percent",
          "type": "uint16"
        }
      ],
      "name": "updateFeePercent",
      "outputs": [],
      "stateMutability": "nonpayable",
      "type": "function"
    }
  ],
  "bytecode": "0x60806040523480156200001157600080fd5b5060405162003add38038062003add8339818101604052810190620000379190620001eb565b620000576200004b6200010860201b60201c565b6200011060201b60201c565b6127108161ffff161115620000a3576040517f08c379a00000000000000000000000000000000000000000000000000000000081526004016200009a906200023e565b60405180910390fd5b33600460006101000a81548173ffffffffffffffffffffffffffffffffffffffff021916908373ffffffffffffffffffffffffffffffffffffffff16021790555080600460146101000a81548161ffff021916908361ffff16021790555050620002c2565b600033905090565b60008060009054906101000a900473ffffffffffffffffffffffffffffffffffffffff169050816000806101000a81548173ffffffffffffffffffffffffffffffffffffffff021916908373ffffffffffffffffffffffffffffffffffffffff1602179055508173ffffffffffffffffffffffffffffffffffffffff168173ffffffffffffffffffffffffffffffffffffffff167f8be0079c531659141344cd1fd0a4f28419497f9722a3daafe3b4186f6b6457e060405160405180910390a35050565b600081519050620001e581620002a8565b92915050565b600060208284031215620001fe57600080fd5b60006200020e84828501620001d4565b91505092915050565b600062000226601d8362000260565b915062000233826200027f565b602082019050919050565b60006020820190508181036000830152620002598162000217565b9050919050565b600082825260208201905092915050565b600061ffff82169050919050565b7f496e7075742076616c7565206973206d6f7265207468616e2031303025000000600082015250565b620002b38162000271565b8114620002bf57600080fd5b50565b61380b80620002d26000396000f3fe60806040526004361061014b5760003560e01c80637fd6f15c116100b65780638da5cb5b1161006f5780638da5cb5b146104ad578063957bb1e0146104d8578063a04a86bd146104f4578063bd66528a1461051d578063f2fde38b14610546578063f4dae74c1461056f5761014b565b80637fd6f15c146103ae5780638035eb5c146103d95780638705fcd4146104025780638aae982a1461042b5780638ba39adb146104685780638c40f843146104845761014b565b8063275e086c11610108578063275e086c146102b457806341275358146102f1578063684bfaac1461031c578063715018a6146103455780637489ec231461035c5780637d0346c5146103855761014b565b806308745c9814610150578063093dff7d1461018d578063150b7a02146101b6578063161e444e146101f357806319daa10814610230578063238e203f1461026d575b600080fd5b34801561015c57600080fd5b50610177600480360381019061017291906125b1565b610598565b6040516101849190612c59565b60405180910390f35b34801561019957600080fd5b506101b460048036038101906101af91906127e6565b6105c9565b005b3480156101c257600080fd5b506101dd60048036038101906101d89190612536565b610621565b6040516101ea9190612c74565b60405180910390f35b3480156101ff57600080fd5b5061021a6004803603810190610215919061262e565b610635565b6040516102279190612eea565b60405180910390f35b34801561023c57600080fd5b50610257600480360381019061025291906126f8565b61071f565b6040516102649190612eea565b60405180910390f35b34801561027957600080fd5b50610294600480360381019061028f919061262e565b61077d565b6040516102ab9b9a99989796959493929190612faa565b60405180910390f35b3480156102c057600080fd5b506102db60048036038101906102d69190612734565b610851565b6040516102e89190612c59565b60405180910390f35b3480156102fd57600080fd5b5061030661088f565b6040516103139190612c07565b60405180910390f35b34801561032857600080fd5b50610343600480360381019061033e91906125ed565b6108b5565b005b34801561035157600080fd5b5061035a610965565b005b34801561036857600080fd5b50610383600480360381019061037e919061262e565b6109ed565b005b34801561039157600080fd5b506103ac60048036038101906103a79190612657565b610c37565b005b3480156103ba57600080fd5b506103c3610e32565b6040516103d09190612ecf565b60405180910390f35b3480156103e557600080fd5b5061040060048036038101906103fb9190612783565b610e46565b005b34801561040e57600080fd5b506104296004803603810190610424919061250d565b610e5c565b005b34801561043757600080fd5b50610452600480360381019061044d919061250d565b610f1c565b60405161045f9190612eea565b60405180910390f35b610482600480360381019061047d919061262e565b610f68565b005b34801561049057600080fd5b506104ab60048036038101906104a691906125ed565b6113a1565b005b3480156104b957600080fd5b506104c2611451565b6040516104cf9190612c07565b60405180910390f35b6104f260048036038101906104ed919061262e565b61147a565b005b34801561050057600080fd5b5061051b6004803603810190610516919061285d565b61182f565b005b34801561052957600080fd5b50610544600480360381019061053f919061262e565b611914565b005b34801561055257600080fd5b5061056d6004803603810190610568919061250d565b611d06565b005b34801561057b57600080fd5b5061059660048036038101906105919190612783565b611dfe565b005b600260205281600052604060002081815481106105b457600080fd5b90600052602060002001600091509150505481565b81831161060b576040517f08c379a000000000000000000000000000000000000000000000000000000000815260040161060290612e8f565b60405180910390fd5b61061a60018686868686611e14565b5050505050565b600063150b7a0260e01b9050949350505050565b60008060036000848152602001908152602001600020905060008160000160009054906101000a900460ff16905060008160ff16141561067d5781600301549250505061071a565b60028160ff1614156106b057600082600701549050600081146106a057806106a6565b82600301545b935050505061071a565b60008260030154905060008360050154905060008185600601546106d491906131f5565b8560040154846106e491906131f5565b6106ee919061316a565b90508082436106fd91906131f5565b610707919061319b565b8361071291906131f5565b955050505050505b919050565b6000600160008473ffffffffffffffffffffffffffffffffffffffff1673ffffffffffffffffffffffffffffffffffffffff168152602001908152602001600020600083815260200190815260200160002080549050905092915050565b60036020528060005260406000206000915090508060000160009054906101000a900460ff16908060000160019054906101000a900473ffffffffffffffffffffffffffffffffffffffff16908060010160009054906101000a900473ffffffffffffffffffffffffffffffffffffffff16908060020154908060030154908060040154908060050154908060060154908060070154908060080160009054906101000a900473ffffffffffffffffffffffffffffffffffffffff16908060080160149054906101000a900460ff1690508b565b6001602052826000526040600020602052816000526040600020818154811061087957600080fd5b9060005260206000200160009250925050505481565b600460009054906101000a900473ffffffffffffffffffffffffffffffffffffffff1681565b60008151116108f9576040517f08c379a00000000000000000000000000000000000000000000000000000000081526004016108f090612daf565b60405180910390fd5b60005b81518110156109615761094e828281518110610941577f4e487b7100000000000000000000000000000000000000000000000000000000600052603260045260246000fd5b60200260200101516109ed565b808061095990613338565b9150506108fc565b5050565b61096d61220c565b73ffffffffffffffffffffffffffffffffffffffff1661098b611451565b73ffffffffffffffffffffffffffffffffffffffff16146109e1576040517f08c379a00000000000000000000000000000000000000000000000000000000081526004016109d890612e0f565b60405180910390fd5b6109eb6000612214565b565b60006003600083815260200190815260200160002090503373ffffffffffffffffffffffffffffffffffffffff168160000160019054906101000a900473ffffffffffffffffffffffffffffffffffffffff1673ffffffffffffffffffffffffffffffffffffffff1614610a96576040517f08c379a0000000000000000000000000000000000000000000000000000000008152600401610a8d90612e4f565b60405180910390fd5b6000816007015414610add576040517f08c379a0000000000000000000000000000000000000000000000000000000008152600401610ad490612d4f565b60405180910390fd5b600015158160080160149054906101000a900460ff16151514610b35576040517f08c379a0000000000000000000000000000000000000000000000000000000008152600401610b2c90612e6f565b60405180910390fd5b60008160010160009054906101000a900473ffffffffffffffffffffffffffffffffffffffff169050600082600201549050600083600601819055508173ffffffffffffffffffffffffffffffffffffffff166342842e0e3033846040518463ffffffff1660e01b8152600401610bae93929190612c22565b600060405180830381600087803b158015610bc857600080fd5b505af1158015610bdc573d6000803e3d6000fd5b50505050838273ffffffffffffffffffffffffffffffffffffffff167f856ac238bc6f4bb0c966003f34f148bf0ef3b60f266e451474de23ff78196c8b8333604051610c29929190612f05565b60405180910390a350505050565b6000855111610c7b576040517f08c379a0000000000000000000000000000000000000000000000000000000008152600401610c7290612daf565b60405180910390fd5b6000811415610cf55760005b8551811015610cf357610ce0600088888481518110610ccf577f4e487b7100000000000000000000000000000000000000000000000000000000600052603260045260246000fd5b602002602001015188600088611e14565b8080610ceb90613338565b915050610c87565b505b6001811415610db057828411610d40576040517f08c379a0000000000000000000000000000000000000000000000000000000008152600401610d3790612e8f565b60405180910390fd5b60005b8551811015610dae57610d9b600188888481518110610d8b577f4e487b7100000000000000000000000000000000000000000000000000000000600052603260045260246000fd5b6020026020010151888888611e14565b8080610da690613338565b915050610d43565b505b6002811415610e2a5760005b8551811015610e2857610e15600288888481518110610e04577f4e487b7100000000000000000000000000000000000000000000000000000000600052603260045260246000fd5b602002602001015188600088611e14565b8080610e2090613338565b915050610dbc565b505b505050505050565b600460149054906101000a900461ffff1681565b610e566000858585600086611e14565b50505050565b610e6461220c565b73ffffffffffffffffffffffffffffffffffffffff16610e82611451565b73ffffffffffffffffffffffffffffffffffffffff1614610ed8576040517f08c379a0000000000000000000000000000000000000000000000000000000008152600401610ecf90612e0f565b60405180910390fd5b80600460006101000a81548173ffffffffffffffffffffffffffffffffffffffff021916908373ffffffffffffffffffffffffffffffffffffffff16021790555050565b6000600260008373ffffffffffffffffffffffffffffffffffffffff1673ffffffffffffffffffffffffffffffffffffffff168152602001908152602001600020805490509050919050565b60006003600083815260200190815260200160002090506000816006015490506000811415610fcc576040517f08c379a0000000000000000000000000000000000000000000000000000000008152600401610fc390612e2f565b60405180910390fd5b43811161100e576040517f08c379a000000000000000000000000000000000000000000000000000000000815260040161100590612d8f565b60405180910390fd5b60028260000160009054906101000a900460ff1660ff1610611065576040517f08c379a000000000000000000000000000000000000000000000000000000000815260040161105c90612d6f565b60405180910390fd5b600015158260080160149054906101000a900460ff161515146110bd576040517f08c379a00000000000000000000000000000000000000000000000000000000081526004016110b490612e6f565b60405180910390fd5b60006110c884610635565b90508034101561110d576040517f08c379a000000000000000000000000000000000000000000000000000000000815260040161110490612cef565b60405180910390fd5b60018360080160146101000a81548160ff0219169083151502179055506000612710600460149054906101000a900461ffff1661ffff168361114f919061319b565b611159919061316a565b90508360000160019054906101000a900473ffffffffffffffffffffffffffffffffffffffff1673ffffffffffffffffffffffffffffffffffffffff166108fc82846111a591906131f5565b9081150290604051600060405180830381858888f1935050505050600460009054906101000a900473ffffffffffffffffffffffffffffffffffffffff1673ffffffffffffffffffffffffffffffffffffffff166108fc829081150290604051600060405180830381858888f193505050505081341115611262573373ffffffffffffffffffffffffffffffffffffffff166108fc833461124691906131f5565b9081150290604051600060405180830381858888f19350505050505b8360010160009054906101000a900473ffffffffffffffffffffffffffffffffffffffff1673ffffffffffffffffffffffffffffffffffffffff166342842e0e303387600201546040518463ffffffff1660e01b81526004016112c793929190612c22565b600060405180830381600087803b1580156112e157600080fd5b505af11580156112f5573d6000803e3d6000fd5b50505050848460010160009054906101000a900473ffffffffffffffffffffffffffffffffffffffff1673ffffffffffffffffffffffffffffffffffffffff167f37a6d1163573be2522695f96cbee3037bf297187c0378e8903ac1ae0192f699f86600201548760000160019054906101000a900473ffffffffffffffffffffffffffffffffffffffff1633876040516113929493929190612f2e565b60405180910390a35050505050565b60008151116113e5576040517f08c379a00000000000000000000000000000000000000000000000000000000081526004016113dc90612daf565b60405180910390fd5b60005b815181101561144d5761143a82828151811061142d577f4e487b7100000000000000000000000000000000000000000000000000000000600052603260045260246000fd5b6020026020010151611914565b808061144590613338565b9150506113e8565b5050565b60008060009054906101000a900473ffffffffffffffffffffffffffffffffffffffff16905090565b600060036000838152602001908152602001600020905060008160060154905060008260070154905060008360080160009054906101000a900473ffffffffffffffffffffffffffffffffffffffff16905060028460000160009054906101000a900460ff1660ff1614611523576040517f08c379a000000000000000000000000000000000000000000000000000000000815260040161151a90612c8f565b60405180910390fd5b6000831415611567576040517f08c379a000000000000000000000000000000000000000000000000000000000815260040161155e90612e2f565b60405180910390fd5b824311156115aa576040517f08c379a00000000000000000000000000000000000000000000000000000000081526004016115a190612d8f565b60405180910390fd5b3373ffffffffffffffffffffffffffffffffffffffff168460000160019054906101000a900473ffffffffffffffffffffffffffffffffffffffff1673ffffffffffffffffffffffffffffffffffffffff16141561163d576040517f08c379a000000000000000000000000000000000000000000000000000000000815260040161163490612def565b60405180910390fd5b600082146116a457601482611652919061316a565b8261165d9190613114565b34101561169f576040517f08c379a000000000000000000000000000000000000000000000000000000000815260040161169690612d2f565b60405180910390fd5b6116f8565b836003015434101580156116b85750600034115b6116f7576040517f08c379a00000000000000000000000000000000000000000000000000000000081526004016116ee90612d2f565b60405180910390fd5b5b603c8361170591906131f5565b43111561172257603c836117199190613114565b84600601819055505b338460080160006101000a81548173ffffffffffffffffffffffffffffffffffffffff021916908373ffffffffffffffffffffffffffffffffffffffff160217905550348460070181905550600082146117ad578073ffffffffffffffffffffffffffffffffffffffff166108fc839081150290604051600060405180830381858888f19350505050505b848460010160009054906101000a900473ffffffffffffffffffffffffffffffffffffffff1673ffffffffffffffffffffffffffffffffffffffff167f7f99059564a74b5d2e3fbf994dec403ab0af5688c9a4e86ca2a933688eaf223b8660020154333460405161182093929190612f73565b60405180910390a35050505050565b61183761220c565b73ffffffffffffffffffffffffffffffffffffffff16611855611451565b73ffffffffffffffffffffffffffffffffffffffff16146118ab576040517f08c379a00000000000000000000000000000000000000000000000000000000081526004016118a290612e0f565b60405180910390fd5b6127108161ffff1611156118f4576040517f08c379a00000000000000000000000000000000000000000000000000000000081526004016118eb90612ccf565b60405180910390fd5b80600460146101000a81548161ffff021916908361ffff16021790555050565b600060036000838152602001908152602001600020905060008160000160019054906101000a900473ffffffffffffffffffffffffffffffffffffffff16905060008260080160009054906101000a900473ffffffffffffffffffffffffffffffffffffffff169050600015158360080160149054906101000a900460ff161515146119d5576040517f08c379a00000000000000000000000000000000000000000000000000000000081526004016119cc90612e6f565b60405180910390fd5b3373ffffffffffffffffffffffffffffffffffffffff168273ffffffffffffffffffffffffffffffffffffffff161480611a3a57503373ffffffffffffffffffffffffffffffffffffffff168173ffffffffffffffffffffffffffffffffffffffff16145b611a79576040517f08c379a0000000000000000000000000000000000000000000000000000000008152600401611a7090612e4f565b60405180910390fd5b60028360000160009054906101000a900460ff1660ff1614611ad0576040517f08c379a0000000000000000000000000000000000000000000000000000000008152600401611ac790612eaf565b60405180910390fd5b82600601544311611b16576040517f08c379a0000000000000000000000000000000000000000000000000000000008152600401611b0d90612dcf565b60405180910390fd5b60008360010160009054906101000a900473ffffffffffffffffffffffffffffffffffffffff1690506000846002015490506000856007015490506000612710600460149054906101000a900461ffff1661ffff1683611b76919061319b565b611b80919061316a565b905060018760080160146101000a81548160ff0219169083151502179055508573ffffffffffffffffffffffffffffffffffffffff166108fc8284611bc591906131f5565b9081150290604051600060405180830381858888f1935050505050600460009054906101000a900473ffffffffffffffffffffffffffffffffffffffff1673ffffffffffffffffffffffffffffffffffffffff166108fc829081150290604051600060405180830381858888f19350505050508373ffffffffffffffffffffffffffffffffffffffff166342842e0e3087866040518463ffffffff1660e01b8152600401611c7593929190612c22565b600060405180830381600087803b158015611c8f57600080fd5b505af1158015611ca3573d6000803e3d6000fd5b50505050878473ffffffffffffffffffffffffffffffffffffffff167f37a6d1163573be2522695f96cbee3037bf297187c0378e8903ac1ae0192f699f85898987604051611cf49493929190612f2e565b60405180910390a35050505050505050565b611d0e61220c565b73ffffffffffffffffffffffffffffffffffffffff16611d2c611451565b73ffffffffffffffffffffffffffffffffffffffff1614611d82576040517f08c379a0000000000000000000000000000000000000000000000000000000008152600401611d7990612e0f565b60405180910390fd5b600073ffffffffffffffffffffffffffffffffffffffff168173ffffffffffffffffffffffffffffffffffffffff161415611df2576040517f08c379a0000000000000000000000000000000000000000000000000000000008152600401611de990612d0f565b60405180910390fd5b611dfb81612214565b50565b611e0e6002858585600086611e14565b50505050565b438111611e56576040517f08c379a0000000000000000000000000000000000000000000000000000000008152600401611e4d90612caf565b60405180910390fd5b6000611e638686336122d8565b90506040518061016001604052808860ff1681526020013373ffffffffffffffffffffffffffffffffffffffff1681526020018773ffffffffffffffffffffffffffffffffffffffff16815260200186815260200185815260200184815260200143815260200183815260200160008152602001600073ffffffffffffffffffffffffffffffffffffffff168152602001600015158152506003600083815260200190815260200160002060008201518160000160006101000a81548160ff021916908360ff16021790555060208201518160000160016101000a81548173ffffffffffffffffffffffffffffffffffffffff021916908373ffffffffffffffffffffffffffffffffffffffff16021790555060408201518160010160006101000a81548173ffffffffffffffffffffffffffffffffffffffff021916908373ffffffffffffffffffffffffffffffffffffffff160217905550606082015181600201556080820151816003015560a0820151816004015560c0820151816005015560e0820151816006015561010082015181600701556101208201518160080160006101000a81548173ffffffffffffffffffffffffffffffffffffffff021916908373ffffffffffffffffffffffffffffffffffffffff1602179055506101408201518160080160146101000a81548160ff021916908315150217905550905050600160008773ffffffffffffffffffffffffffffffffffffffff1673ffffffffffffffffffffffffffffffffffffffff1681526020019081526020016000206000868152602001908152602001600020819080600181540180825580915050600190039060005260206000200160009091909190915055600260003373ffffffffffffffffffffffffffffffffffffffff1673ffffffffffffffffffffffffffffffffffffffff1681526020019081526020016000208190806001815401808255809150506001900390600052602060002001600090919091909150558573ffffffffffffffffffffffffffffffffffffffff166342842e0e3330886040518463ffffffff1660e01b815260040161218093929190612c22565b600060405180830381600087803b15801561219a57600080fd5b505af11580156121ae573d6000803e3d6000fd5b50505050808673ffffffffffffffffffffffffffffffffffffffff167f165b17602125a20b222f9736f06d776e39507d7dc60ddef32ccc23ea2f1b50e587336040516121fb929190612f05565b60405180910390a350505050505050565b600033905090565b60008060009054906101000a900473ffffffffffffffffffffffffffffffffffffffff169050816000806101000a81548173ffffffffffffffffffffffffffffffffffffffff021916908373ffffffffffffffffffffffffffffffffffffffff1602179055508173ffffffffffffffffffffffffffffffffffffffff168173ffffffffffffffffffffffffffffffffffffffff167f8be0079c531659141344cd1fd0a4f28419497f9722a3daafe3b4186f6b6457e060405160405180910390a35050565b6000438484846040516020016122f19493929190612bb9565b6040516020818303038152906040528051906020012090509392505050565b600061232361231e8461307a565b613055565b9050808382526020820190508285602086028201111561234257600080fd5b60005b858110156123725781612358888261248f565b845260208401935060208301925050600181019050612345565b5050509392505050565b600061238f61238a846130a6565b613055565b905080838252602082019050828560208602820111156123ae57600080fd5b60005b858110156123de57816123c488826124f8565b8452602084019350602083019250506001810190506123b1565b5050509392505050565b60006123fb6123f6846130d2565b613055565b90508281526020810184848401111561241357600080fd5b61241e8482856132f8565b509392505050565b60008135905061243581613762565b92915050565b600082601f83011261244c57600080fd5b813561245c848260208601612310565b91505092915050565b600082601f83011261247657600080fd5b813561248684826020860161237c565b91505092915050565b60008135905061249e81613779565b92915050565b600082601f8301126124b557600080fd5b81356124c58482602086016123e8565b91505092915050565b6000813590506124dd81613790565b92915050565b6000813590506124f2816137a7565b92915050565b600081359050612507816137be565b92915050565b60006020828403121561251f57600080fd5b600061252d84828501612426565b91505092915050565b6000806000806080858703121561254c57600080fd5b600061255a87828801612426565b945050602061256b87828801612426565b935050604061257c878288016124f8565b925050606085013567ffffffffffffffff81111561259957600080fd5b6125a5878288016124a4565b91505092959194509250565b600080604083850312156125c457600080fd5b60006125d285828601612426565b92505060206125e3858286016124f8565b9150509250929050565b6000602082840312156125ff57600080fd5b600082013567ffffffffffffffff81111561261957600080fd5b6126258482850161243b565b91505092915050565b60006020828403121561264057600080fd5b600061264e8482850161248f565b91505092915050565b60008060008060008060c0878903121561267057600080fd5b600061267e89828a016124ce565b965050602087013567ffffffffffffffff81111561269b57600080fd5b6126a789828a01612465565b95505060406126b889828a016124f8565b94505060606126c989828a016124f8565b93505060806126da89828a016124f8565b92505060a06126eb89828a016124f8565b9150509295509295509295565b6000806040838503121561270b57600080fd5b6000612719858286016124ce565b925050602061272a858286016124f8565b9150509250929050565b60008060006060848603121561274957600080fd5b6000612757868287016124ce565b9350506020612768868287016124f8565b9250506040612779868287016124f8565b9150509250925092565b6000806000806080858703121561279957600080fd5b60006127a7878288016124ce565b94505060206127b8878288016124f8565b93505060406127c9878288016124f8565b92505060606127da878288016124f8565b91505092959194509250565b600080600080600060a086880312156127fe57600080fd5b600061280c888289016124ce565b955050602061281d888289016124f8565b945050604061282e888289016124f8565b935050606061283f888289016124f8565b9250506080612850888289016124f8565b9150509295509295909350565b60006020828403121561286f57600080fd5b600061287d848285016124e3565b91505092915050565b61288f81613229565b82525050565b6128a66128a182613229565b613381565b82525050565b6128b58161323b565b82525050565b6128c481613247565b82525050565b6128d381613251565b82525050565b6128e2816132d4565b82525050565b6128f96128f4826132d4565b613381565b82525050565b600061290c601883613103565b91506129178261345a565b602082019050919050565b600061292f601f83613103565b915061293a82613483565b602082019050919050565b6000612952601d83613103565b915061295d826134ac565b602082019050919050565b6000612975600b83613103565b9150612980826134d5565b602082019050919050565b6000612998602683613103565b91506129a3826134fe565b604082019050919050565b60006129bb600d83613103565b91506129c68261354d565b602082019050919050565b60006129de600d83613103565b91506129e982613576565b602082019050919050565b6000612a01601683613103565b9150612a0c8261359f565b602082019050919050565b6000612a24601183613103565b9150612a2f826135c8565b602082019050919050565b6000612a47601e83613103565b9150612a52826135f1565b602082019050919050565b6000612a6a601583613103565b9150612a758261361a565b602082019050919050565b6000612a8d601d83613103565b9150612a9882613643565b602082019050919050565b6000612ab0602083613103565b9150612abb8261366c565b602082019050919050565b6000612ad3600e83613103565b9150612ade82613695565b602082019050919050565b6000612af6600d83613103565b9150612b01826136be565b602082019050919050565b6000612b19600c83613103565b9150612b24826136e7565b602082019050919050565b6000612b3c601b83613103565b9150612b4782613710565b602082019050919050565b6000612b5f601483613103565b9150612b6a82613739565b602082019050919050565b612b7e8161328f565b82525050565b612b8d816132bd565b82525050565b612ba4612b9f826132bd565b6133a5565b82525050565b612bb3816132c7565b82525050565b6000612bc58287612b93565b602082019150612bd582866128e8565b601482019150612be58285612b93565b602082019150612bf58284612895565b60148201915081905095945050505050565b6000602082019050612c1c6000830184612886565b92915050565b6000606082019050612c376000830186612886565b612c446020830185612886565b612c516040830184612b84565b949350505050565b6000602082019050612c6e60008301846128bb565b92915050565b6000602082019050612c8960008301846128ca565b92915050565b60006020820190508181036000830152612ca8816128ff565b9050919050565b60006020820190508181036000830152612cc881612922565b9050919050565b60006020820190508181036000830152612ce881612945565b9050919050565b60006020820190508181036000830152612d0881612968565b9050919050565b60006020820190508181036000830152612d288161298b565b9050919050565b60006020820190508181036000830152612d48816129ae565b9050919050565b60006020820190508181036000830152612d68816129d1565b9050919050565b60006020820190508181036000830152612d88816129f4565b9050919050565b60006020820190508181036000830152612da881612a17565b9050919050565b60006020820190508181036000830152612dc881612a3a565b9050919050565b60006020820190508181036000830152612de881612a5d565b9050919050565b60006020820190508181036000830152612e0881612a80565b9050919050565b60006020820190508181036000830152612e2881612aa3565b9050919050565b60006020820190508181036000830152612e4881612ac6565b9050919050565b60006020820190508181036000830152612e6881612ae9565b9050919050565b60006020820190508181036000830152612e8881612b0c565b9050919050565b60006020820190508181036000830152612ea881612b2f565b9050919050565b60006020820190508181036000830152612ec881612b52565b9050919050565b6000602082019050612ee46000830184612b75565b92915050565b6000602082019050612eff6000830184612b84565b92915050565b6000604082019050612f1a6000830185612b84565b612f276020830184612886565b9392505050565b6000608082019050612f436000830187612b84565b612f506020830186612886565b612f5d6040830185612886565b612f6a6060830184612b84565b95945050505050565b6000606082019050612f886000830186612b84565b612f956020830185612886565b612fa26040830184612b84565b949350505050565b600061016082019050612fc0600083018e612baa565b612fcd602083018d612886565b612fda604083018c6128d9565b612fe7606083018b612b84565b612ff4608083018a612b84565b61300160a0830189612b84565b61300e60c0830188612b84565b61301b60e0830187612b84565b613029610100830186612b84565b613037610120830185612886565b6130456101408301846128ac565b9c9b505050505050505050505050565b600061305f613070565b905061306b8282613307565b919050565b6000604051905090565b600067ffffffffffffffff8211156130955761309461340d565b5b602082029050602081019050919050565b600067ffffffffffffffff8211156130c1576130c061340d565b5b602082029050602081019050919050565b600067ffffffffffffffff8211156130ed576130ec61340d565b5b6130f68261343c565b9050602081019050919050565b600082825260208201905092915050565b600061311f826132bd565b915061312a836132bd565b9250827fffffffffffffffffffffffffffffffffffffffffffffffffffffffffffffffff0382111561315f5761315e6133af565b5b828201905092915050565b6000613175826132bd565b9150613180836132bd565b9250826131905761318f6133de565b5b828204905092915050565b60006131a6826132bd565b91506131b1836132bd565b9250817fffffffffffffffffffffffffffffffffffffffffffffffffffffffffffffffff04831182151516156131ea576131e96133af565b5b828202905092915050565b6000613200826132bd565b915061320b836132bd565b92508282101561321e5761321d6133af565b5b828203905092915050565b60006132348261329d565b9050919050565b60008115159050919050565b6000819050919050565b60007fffffffff0000000000000000000000000000000000000000000000000000000082169050919050565b600061328882613229565b9050919050565b600061ffff82169050919050565b600073ffffffffffffffffffffffffffffffffffffffff82169050919050565b6000819050919050565b600060ff82169050919050565b60006132df826132e6565b9050919050565b60006132f18261329d565b9050919050565b82818337600083830152505050565b6133108261343c565b810181811067ffffffffffffffff8211171561332f5761332e61340d565b5b80604052505050565b6000613343826132bd565b91507fffffffffffffffffffffffffffffffffffffffffffffffffffffffffffffffff821415613376576133756133af565b5b600182019050919050565b600061338c82613393565b9050919050565b600061339e8261344d565b9050919050565b6000819050919050565b7f4e487b7100000000000000000000000000000000000000000000000000000000600052601160045260246000fd5b7f4e487b7100000000000000000000000000000000000000000000000000000000600052601260045260246000fd5b7f4e487b7100000000000000000000000000000000000000000000000000000000600052604160045260246000fd5b6000601f19601f8301169050919050565b60008160601b9050919050565b7f6f6e6c7920666f7220456e676c6973682041756374696f6e0000000000000000600082015250565b7f4475726174696f6e206d757374206265206d6f7265207468616e207a65726f00600082015250565b7f496e7075742076616c7565206973206d6f7265207468616e2031303025000000600082015250565b7f5072696365206572726f72000000000000000000000000000000000000000000600082015250565b7f4f776e61626c653a206e6577206f776e657220697320746865207a65726f206160008201527f6464726573730000000000000000000000000000000000000000000000000000602082015250565b7f6c6f772070726963652062696400000000000000000000000000000000000000600082015250565b7f42696464696e6720657869737400000000000000000000000000000000000000600082015250565b7f49742773206120456e676c6973682041756374696f6e00000000000000000000600082015250565b7f41756374696f6e2068617320656e646564000000000000000000000000000000600082015250565b7f4174206c656173742031204944206d75737420626520737570706c6965640000600082015250565b7f41756374696f6e20686173206e6f7420656e6465640000000000000000000000600082015250565b7f43616e206e6f7420626964206f6e20796f7572206f776e206f72646572000000600082015250565b7f4f776e61626c653a2063616c6c6572206973206e6f7420746865206f776e6572600082015250565b7f43616e63656c6564206f72646572000000000000000000000000000000000000600082015250565b7f4163636573732064656e69656400000000000000000000000000000000000000600082015250565b7f416c726561647920736f6c640000000000000000000000000000000000000000600082015250565b7f456e6420707269636520686967686572207468616e2073746172740000000000600082015250565b7f456e676c6973682041756374696f6e206f6e6c79000000000000000000000000600082015250565b61376b81613229565b811461377657600080fd5b50565b61378281613247565b811461378d57600080fd5b50565b6137998161327d565b81146137a457600080fd5b50565b6137b08161328f565b81146137bb57600080fd5b50565b6137c7816132bd565b81146137d257600080fd5b5056fea2646970667358221220fad5c5a0dfd54621d37a5b720a089286762beb54d7b2743e1c8c5e78730851f064736f6c63430008040033",
  "linkReferences": {},
  "deployedLinkReferences": {}
}