{
  "_format": "hh-sol-artifact-1",
  "contractName": "TokenTransfer",
  "sourceName": "contracts/TokenTransfer.sol",
  "abi": [
    {
      "inputs": [
        {
          "internalType": "address",
          "name": "erc721TokenAddress",
          "type": "address"
        },
        {
          "internalType": "address",
          "name": "sendTo",
          "type": "address"
        },
        {
          "internalType": "uint256[]",
          "name": "_ids",
          "type": "uint256[]"
        }
      ],
      "name": "transferTokens",
      "outputs": [],
      "stateMutability": "nonpayable",
      "type": "function"
    }
  ],
  "bytecode": "0x608060405234801561001057600080fd5b506106a8806100206000396000f3fe608060405234801561001057600080fd5b506004361061002b5760003560e01c8063b1fb7b7514610030575b600080fd5b61004a6004803603810190610045919061037a565b61004c565b005b600083905060005b82518110156101a6573373ffffffffffffffffffffffffffffffffffffffff168273ffffffffffffffffffffffffffffffffffffffff16636352211e8584815181106100c9577f4e487b7100000000000000000000000000000000000000000000000000000000600052603260045260246000fd5b60200260200101516040518263ffffffff1660e01b81526004016100ed9190610479565b60206040518083038186803b15801561010557600080fd5b505afa158015610119573d6000803e3d6000fd5b505050506040513d601f19601f8201168201806040525081019061013d9190610351565b73ffffffffffffffffffffffffffffffffffffffff1614610193576040517f08c379a000000000000000000000000000000000000000000000000000000000815260040161018a90610459565b60405180910390fd5b808061019e90610563565b915050610054565b5060005b8251811015610275578173ffffffffffffffffffffffffffffffffffffffff166342842e0e338686858151811061020a577f4e487b7100000000000000000000000000000000000000000000000000000000600052603260045260246000fd5b60200260200101516040518463ffffffff1660e01b815260040161023093929190610422565b600060405180830381600087803b15801561024a57600080fd5b505af115801561025e573d6000803e3d6000fd5b50505050808061026d90610563565b9150506101aa565b5050505050565b600061028f61028a846104b9565b610494565b905080838252602082019050828560208602820111156102ae57600080fd5b60005b858110156102de57816102c4888261033c565b8452602084019350602083019250506001810190506102b1565b5050509392505050565b6000813590506102f781610644565b92915050565b60008151905061030c81610644565b92915050565b600082601f83011261032357600080fd5b813561033384826020860161027c565b91505092915050565b60008135905061034b8161065b565b92915050565b60006020828403121561036357600080fd5b6000610371848285016102fd565b91505092915050565b60008060006060848603121561038f57600080fd5b600061039d868287016102e8565b93505060206103ae868287016102e8565b925050604084013567ffffffffffffffff8111156103cb57600080fd5b6103d786828701610312565b9150509250925092565b6103ea816104f6565b82525050565b60006103fd601b836104e5565b91506104088261061b565b602082019050919050565b61041c81610528565b82525050565b600060608201905061043760008301866103e1565b61044460208301856103e1565b6104516040830184610413565b949350505050565b60006020820190508181036000830152610472816103f0565b9050919050565b600060208201905061048e6000830184610413565b92915050565b600061049e6104af565b90506104aa8282610532565b919050565b6000604051905090565b600067ffffffffffffffff8211156104d4576104d36105db565b5b602082029050602081019050919050565b600082825260208201905092915050565b600061050182610508565b9050919050565b600073ffffffffffffffffffffffffffffffffffffffff82169050919050565b6000819050919050565b61053b8261060a565b810181811067ffffffffffffffff8211171561055a576105596105db565b5b80604052505050565b600061056e82610528565b91507fffffffffffffffffffffffffffffffffffffffffffffffffffffffffffffffff8214156105a1576105a06105ac565b5b600182019050919050565b7f4e487b7100000000000000000000000000000000000000000000000000000000600052601160045260246000fd5b7f4e487b7100000000000000000000000000000000000000000000000000000000600052604160045260246000fd5b6000601f19601f8301169050919050565b7f546f6b656e206e6f74206f776e656420627920636f6e74726163740000000000600082015250565b61064d816104f6565b811461065857600080fd5b50565b61066481610528565b811461066f57600080fd5b5056fea26469706673582212209a52a18d2a88476b8d6b3a0571836eef1ba9d2bb2ac625a1e8fc26987dc554fe64736f6c63430008040033",
  "linkReferences": {},
  "deployedLinkReferences": {}
}