{
    "_format": "hh-sol-artifact-1",
    "contractName": "NFTEXV2",
    "sourceName": "contracts/NFTEXV2.sol",
    "abi": [
        {
            "inputs": [
                {
                    "internalType": "uint16",
                    "name": "_feePercent",
                    "type": "uint16"
                }
            ],
            "stateMutability": "nonpayable",
            "type": "constructor"
        },
        {
            "anonymous": false,
            "inputs": [
                {
                    "indexed": true,
                    "internalType": "contract IERC721",
                    "name": "token",
                    "type": "address"
                },
                {
                    "indexed": false,
                    "internalType": "uint256",
                    "name": "id",
                    "type": "uint256"
                },
                {
                    "indexed": true,
                    "internalType": "bytes32",
                    "name": "hash",
                    "type": "bytes32"
                },
                {
                    "indexed": true,
                    "internalType": "address",
                    "name": "bidder",
                    "type": "address"
                },
                {
                    "indexed": false,
                    "internalType": "uint256",
                    "name": "bidPrice",
                    "type": "uint256"
                }
            ],
            "name": "Bid",
            "type": "event"
        },
        {
            "anonymous": false,
            "inputs": [
                {
                    "indexed": true,
                    "internalType": "contract IERC721",
                    "name": "token",
                    "type": "address"
                },
                {
                    "indexed": false,
                    "internalType": "uint256",
                    "name": "id",
                    "type": "uint256"
                },
                {
                    "indexed": true,
                    "internalType": "bytes32",
                    "name": "hash",
                    "type": "bytes32"
                },
                {
                    "indexed": true,
                    "internalType": "address",
                    "name": "seller",
                    "type": "address"
                }
            ],
            "name": "CancelOrder",
            "type": "event"
        },
        {
            "anonymous": false,
            "inputs": [
                {
                    "indexed": true,
                    "internalType": "contract IERC721",
                    "name": "token",
                    "type": "address"
                },
                {
                    "indexed": false,
                    "internalType": "uint256",
                    "name": "id",
                    "type": "uint256"
                },
                {
                    "indexed": true,
                    "internalType": "bytes32",
                    "name": "hash",
                    "type": "bytes32"
                },
                {
                    "indexed": false,
                    "internalType": "address",
                    "name": "seller",
                    "type": "address"
                },
                {
                    "indexed": true,
                    "internalType": "address",
                    "name": "taker",
                    "type": "address"
                },
                {
                    "indexed": false,
                    "internalType": "uint256",
                    "name": "price",
                    "type": "uint256"
                }
            ],
            "name": "Claim",
            "type": "event"
        },
        {
            "anonymous": false,
            "inputs": [
                {
                    "indexed": true,
                    "internalType": "contract IERC721",
                    "name": "token",
                    "type": "address"
                },
                {
                    "indexed": false,
                    "internalType": "uint256",
                    "name": "id",
                    "type": "uint256"
                },
                {
                    "indexed": true,
                    "internalType": "bytes32",
                    "name": "hash",
                    "type": "bytes32"
                },
                {
                    "indexed": true,
                    "internalType": "address",
                    "name": "seller",
                    "type": "address"
                }
            ],
            "name": "MakeOrder",
            "type": "event"
        },
        {
            "anonymous": false,
            "inputs": [
                {
                    "indexed": true,
                    "internalType": "address",
                    "name": "previousOwner",
                    "type": "address"
                },
                {
                    "indexed": true,
                    "internalType": "address",
                    "name": "newOwner",
                    "type": "address"
                }
            ],
            "name": "OwnershipTransferred",
            "type": "event"
        },
        {
            "inputs": [
                {
                    "internalType": "bytes32",
                    "name": "_order",
                    "type": "bytes32"
                }
            ],
            "name": "bid",
            "outputs": [],
            "stateMutability": "payable",
            "type": "function"
        },
        {
            "inputs": [
                {
                    "internalType": "bytes32[]",
                    "name": "_ids",
                    "type": "bytes32[]"
                }
            ],
            "name": "bulkCancel",
            "outputs": [],
            "stateMutability": "nonpayable",
            "type": "function"
        },
        {
            "inputs": [
                {
                    "internalType": "bytes32[]",
                    "name": "_ids",
                    "type": "bytes32[]"
                }
            ],
            "name": "bulkClaim",
            "outputs": [],
            "stateMutability": "nonpayable",
            "type": "function"
        },
        {
            "inputs": [
                {
                    "internalType": "contract IERC721",
                    "name": "_token",
                    "type": "address"
                },
                {
                    "internalType": "uint256[]",
                    "name": "_ids",
                    "type": "uint256[]"
                },
                {
                    "internalType": "uint256",
                    "name": "_startPrice",
                    "type": "uint256"
                },
                {
                    "internalType": "uint256",
                    "name": "_endPrice",
                    "type": "uint256"
                },
                {
                    "internalType": "uint256",
                    "name": "_endBlock",
                    "type": "uint256"
                },
                {
                    "internalType": "uint256",
                    "name": "_type",
                    "type": "uint256"
                }
            ],
            "name": "bulkList",
            "outputs": [],
            "stateMutability": "nonpayable",
            "type": "function"
        },
        {
            "inputs": [
                {
                    "internalType": "bytes32",
                    "name": "_order",
                    "type": "bytes32"
                }
            ],
            "name": "buyItNow",
            "outputs": [],
            "stateMutability": "payable",
            "type": "function"
        },
        {
            "inputs": [
                {
                    "internalType": "bytes32",
                    "name": "_order",
                    "type": "bytes32"
                }
            ],
            "name": "cancelOrder",
            "outputs": [],
            "stateMutability": "nonpayable",
            "type": "function"
        },
        {
            "inputs": [
                {
                    "internalType": "bytes32",
                    "name": "_order",
                    "type": "bytes32"
                }
            ],
            "name": "claim",
            "outputs": [],
            "stateMutability": "nonpayable",
            "type": "function"
        },
        {
            "inputs": [
                {
                    "internalType": "contract IERC721",
                    "name": "_token",
                    "type": "address"
                },
                {
                    "internalType": "uint256",
                    "name": "_id",
                    "type": "uint256"
                },
                {
                    "internalType": "uint256",
                    "name": "_startPrice",
                    "type": "uint256"
                },
                {
                    "internalType": "uint256",
                    "name": "_endPrice",
                    "type": "uint256"
                },
                {
                    "internalType": "uint256",
                    "name": "_endBlock",
                    "type": "uint256"
                }
            ],
            "name": "dutchAuction",
            "outputs": [],
            "stateMutability": "nonpayable",
            "type": "function"
        },
        {
            "inputs": [
                {
                    "internalType": "contract IERC721",
                    "name": "_token",
                    "type": "address"
                },
                {
                    "internalType": "uint256",
                    "name": "_id",
                    "type": "uint256"
                },
                {
                    "internalType": "uint256",
                    "name": "_startPrice",
                    "type": "uint256"
                },
                {
                    "internalType": "uint256",
                    "name": "_endBlock",
                    "type": "uint256"
                }
            ],
            "name": "englishAuction",
            "outputs": [],
            "stateMutability": "nonpayable",
            "type": "function"
        },
        {
            "inputs": [],
            "name": "feeAddress",
            "outputs": [
                {
                    "internalType": "address",
                    "name": "",
                    "type": "address"
                }
            ],
            "stateMutability": "view",
            "type": "function"
        },
        {
            "inputs": [],
            "name": "feePercent",
            "outputs": [
                {
                    "internalType": "uint16",
                    "name": "",
                    "type": "uint16"
                }
            ],
            "stateMutability": "view",
            "type": "function"
        },
        {
            "inputs": [
                {
                    "internalType": "contract IERC721",
                    "name": "_token",
                    "type": "address"
                },
                {
                    "internalType": "uint256",
                    "name": "_id",
                    "type": "uint256"
                },
                {
                    "internalType": "uint256",
                    "name": "_price",
                    "type": "uint256"
                },
                {
                    "internalType": "uint256",
                    "name": "_endBlock",
                    "type": "uint256"
                }
            ],
            "name": "fixedPrice",
            "outputs": [],
            "stateMutability": "nonpayable",
            "type": "function"
        },
        {
            "inputs": [
                {
                    "internalType": "bytes32",
                    "name": "_order",
                    "type": "bytes32"
                }
            ],
            "name": "getCurrentPrice",
            "outputs": [
                {
                    "internalType": "uint256",
                    "name": "",
                    "type": "uint256"
                }
            ],
            "stateMutability": "view",
            "type": "function"
        },
        {
            "inputs": [
                {
                    "internalType": "address",
                    "name": "",
                    "type": "address"
                },
                {
                    "internalType": "address",
                    "name": "",
                    "type": "address"
                },
                {
                    "internalType": "uint256",
                    "name": "",
                    "type": "uint256"
                },
                {
                    "internalType": "bytes",
                    "name": "",
                    "type": "bytes"
                }
            ],
            "name": "onERC721Received",
            "outputs": [
                {
                    "internalType": "bytes4",
                    "name": "",
                    "type": "bytes4"
                }
            ],
            "stateMutability": "nonpayable",
            "type": "function"
        },
        {
            "inputs": [
                {
                    "internalType": "address",
                    "name": "",
                    "type": "address"
                },
                {
                    "internalType": "uint256",
                    "name": "",
                    "type": "uint256"
                }
            ],
            "name": "orderIdBySeller",
            "outputs": [
                {
                    "internalType": "bytes32",
                    "name": "",
                    "type": "bytes32"
                }
            ],
            "stateMutability": "view",
            "type": "function"
        },
        {
            "inputs": [
                {
                    "internalType": "contract IERC721",
                    "name": "",
                    "type": "address"
                },
                {
                    "internalType": "uint256",
                    "name": "",
                    "type": "uint256"
                },
                {
                    "internalType": "uint256",
                    "name": "",
                    "type": "uint256"
                }
            ],
            "name": "orderIdByToken",
            "outputs": [
                {
                    "internalType": "bytes32",
                    "name": "",
                    "type": "bytes32"
                }
            ],
            "stateMutability": "view",
            "type": "function"
        },
        {
            "inputs": [
                {
                    "internalType": "bytes32",
                    "name": "",
                    "type": "bytes32"
                }
            ],
            "name": "orderInfo",
            "outputs": [
                {
                    "internalType": "uint8",
                    "name": "orderType",
                    "type": "uint8"
                },
                {
                    "internalType": "address",
                    "name": "seller",
                    "type": "address"
                },
                {
                    "internalType": "contract IERC721",
                    "name": "token",
                    "type": "address"
                },
                {
                    "internalType": "uint256",
                    "name": "tokenId",
                    "type": "uint256"
                },
                {
                    "internalType": "uint256",
                    "name": "startPrice",
                    "type": "uint256"
                },
                {
                    "internalType": "uint256",
                    "name": "endPrice",
                    "type": "uint256"
                },
                {
                    "internalType": "uint256",
                    "name": "startBlock",
                    "type": "uint256"
                },
                {
                    "internalType": "uint256",
                    "name": "endBlock",
                    "type": "uint256"
                },
                {
                    "internalType": "uint256",
                    "name": "lastBidPrice",
                    "type": "uint256"
                },
                {
                    "internalType": "address",
                    "name": "lastBidder",
                    "type": "address"
                },
                {
                    "internalType": "bool",
                    "name": "isSold",
                    "type": "bool"
                },
                {
                    "internalType": "bool",
                    "name": "isCancelled",
                    "type": "bool"
                }
            ],
            "stateMutability": "view",
            "type": "function"
        },
        {
            "inputs": [],
            "name": "owner",
            "outputs": [
                {
                    "internalType": "address",
                    "name": "",
                    "type": "address"
                }
            ],
            "stateMutability": "view",
            "type": "function"
        },
        {
            "inputs": [],
            "name": "renounceOwnership",
            "outputs": [],
            "stateMutability": "nonpayable",
            "type": "function"
        },
        {
            "inputs": [
                {
                    "internalType": "address",
                    "name": "_seller",
                    "type": "address"
                }
            ],
            "name": "sellerOrderLength",
            "outputs": [
                {
                    "internalType": "uint256",
                    "name": "",
                    "type": "uint256"
                }
            ],
            "stateMutability": "view",
            "type": "function"
        },
        {
            "inputs": [
                {
                    "internalType": "address",
                    "name": "_feeAddress",
                    "type": "address"
                }
            ],
            "name": "setFeeAddress",
            "outputs": [],
            "stateMutability": "nonpayable",
            "type": "function"
        },
        {
            "inputs": [
                {
                    "internalType": "contract IERC721",
                    "name": "_token",
                    "type": "address"
                },
                {
                    "internalType": "uint256",
                    "name": "_id",
                    "type": "uint256"
                }
            ],
            "name": "tokenOrderLength",
            "outputs": [
                {
                    "internalType": "uint256",
                    "name": "",
                    "type": "uint256"
                }
            ],
            "stateMutability": "view",
            "type": "function"
        },
        {
            "inputs": [
                {
                    "internalType": "address",
                    "name": "newOwner",
                    "type": "address"
                }
            ],
            "name": "transferOwnership",
            "outputs": [],
            "stateMutability": "nonpayable",
            "type": "function"
        },
        {
            "inputs": [
                {
                    "internalType": "uint16",
                    "name": "_percent",
                    "type": "uint16"
                }
            ],
            "name": "updateFeePercent",
            "outputs": [],
            "stateMutability": "nonpayable",
            "type": "function"
        }
    ],
    "bytecode": "0x60806040523480156200001157600080fd5b5060405162003d5938038062003d598339818101604052810190620000379190620001eb565b620000576200004b6200010860201b60201c565b6200011060201b60201c565b6127108161ffff161115620000a3576040517f08c379a00000000000000000000000000000000000000000000000000000000081526004016200009a906200023e565b60405180910390fd5b33600460006101000a81548173ffffffffffffffffffffffffffffffffffffffff021916908373ffffffffffffffffffffffffffffffffffffffff16021790555080600460146101000a81548161ffff021916908361ffff16021790555050620002c2565b600033905090565b60008060009054906101000a900473ffffffffffffffffffffffffffffffffffffffff169050816000806101000a81548173ffffffffffffffffffffffffffffffffffffffff021916908373ffffffffffffffffffffffffffffffffffffffff1602179055508173ffffffffffffffffffffffffffffffffffffffff168173ffffffffffffffffffffffffffffffffffffffff167f8be0079c531659141344cd1fd0a4f28419497f9722a3daafe3b4186f6b6457e060405160405180910390a35050565b600081519050620001e581620002a8565b92915050565b600060208284031215620001fe57600080fd5b60006200020e84828501620001d4565b91505092915050565b600062000226601d8362000260565b915062000233826200027f565b602082019050919050565b60006020820190508181036000830152620002598162000217565b9050919050565b600082825260208201905092915050565b600061ffff82169050919050565b7f496e7075742076616c7565206973206d6f7265207468616e2031303025000000600082015250565b620002b38162000271565b8114620002bf57600080fd5b50565b613a8780620002d26000396000f3fe60806040526004361061014b5760003560e01c80637fd6f15c116100b65780638da5cb5b1161006f5780638da5cb5b146104ae578063957bb1e0146104d9578063a04a86bd146104f5578063bd66528a1461051e578063f2fde38b14610547578063f4dae74c146105705761014b565b80637fd6f15c146103af5780638035eb5c146103da5780638705fcd4146104035780638aae982a1461042c5780638ba39adb146104695780638c40f843146104855761014b565b8063275e086c11610108578063275e086c146102b557806341275358146102f2578063684bfaac1461031d578063715018a6146103465780637489ec231461035d5780637d0346c5146103865761014b565b806308745c9814610150578063093dff7d1461018d578063150b7a02146101b6578063161e444e146101f357806319daa10814610230578063238e203f1461026d575b600080fd5b34801561015c57600080fd5b50610177600480360381019061017291906127f7565b610599565b6040516101849190612ec2565b60405180910390f35b34801561019957600080fd5b506101b460048036038101906101af9190612a2c565b6105ca565b005b3480156101c257600080fd5b506101dd60048036038101906101d8919061277c565b610622565b6040516101ea9190612edd565b60405180910390f35b3480156101ff57600080fd5b5061021a60048036038101906102159190612874565b610636565b6040516102279190613173565b60405180910390f35b34801561023c57600080fd5b506102576004803603810190610252919061293e565b610720565b6040516102649190613173565b60405180910390f35b34801561027957600080fd5b50610294600480360381019061028f9190612874565b61077e565b6040516102ac9c9b9a999897969594939291906131ee565b60405180910390f35b3480156102c157600080fd5b506102dc60048036038101906102d7919061297a565b610865565b6040516102e99190612ec2565b60405180910390f35b3480156102fe57600080fd5b506103076108a3565b6040516103149190612e70565b60405180910390f35b34801561032957600080fd5b50610344600480360381019061033f9190612833565b6108c9565b005b34801561035257600080fd5b5061035b610979565b005b34801561036957600080fd5b50610384600480360381019061037f9190612874565b610a01565b005b34801561039257600080fd5b506103ad60048036038101906103a8919061289d565b610cd5565b005b3480156103bb57600080fd5b506103c4610ed0565b6040516103d19190613158565b60405180910390f35b3480156103e657600080fd5b5061040160048036038101906103fc91906129c9565b610ee4565b005b34801561040f57600080fd5b5061042a60048036038101906104259190612753565b610efa565b005b34801561043857600080fd5b50610453600480360381019061044e9190612753565b610fba565b6040516104609190613173565b60405180910390f35b610483600480360381019061047e9190612874565b611006565b005b34801561049157600080fd5b506104ac60048036038101906104a79190612833565b6114df565b005b3480156104ba57600080fd5b506104c361158f565b6040516104d09190612e70565b60405180910390f35b6104f360048036038101906104ee9190612874565b6115b8565b005b34801561050157600080fd5b5061051c60048036038101906105179190612aa3565b6119a7565b005b34801561052a57600080fd5b5061054560048036038101906105409190612874565b611a8c565b005b34801561055357600080fd5b5061056e60048036038101906105699190612753565b611f0d565b005b34801561057c57600080fd5b50610597600480360381019061059291906129c9565b612005565b005b600260205281600052604060002081815481106105b557600080fd5b90600052602060002001600091509150505481565b81831161060c576040517f08c379a000000000000000000000000000000000000000000000000000000000815260040161060390613118565b60405180910390fd5b61061b6001868686868661201b565b5050505050565b600063150b7a0260e01b9050949350505050565b60008060036000848152602001908152602001600020905060008160000160009054906101000a900460ff16905060008160ff16141561067e5781600301549250505061071b565b60028160ff1614156106b157600082600701549050600081146106a157806106a7565b82600301545b935050505061071b565b60008260030154905060008360050154905060008185600601546106d59190613448565b8560040154846106e59190613448565b6106ef91906133bd565b90508082436106fe9190613448565b61070891906133ee565b836107139190613448565b955050505050505b919050565b6000600160008473ffffffffffffffffffffffffffffffffffffffff1673ffffffffffffffffffffffffffffffffffffffff168152602001908152602001600020600083815260200190815260200160002080549050905092915050565b60036020528060005260406000206000915090508060000160009054906101000a900460ff16908060000160019054906101000a900473ffffffffffffffffffffffffffffffffffffffff16908060010160009054906101000a900473ffffffffffffffffffffffffffffffffffffffff16908060020154908060030154908060040154908060050154908060060154908060070154908060080160009054906101000a900473ffffffffffffffffffffffffffffffffffffffff16908060080160149054906101000a900460ff16908060080160159054906101000a900460ff1690508c565b6001602052826000526040600020602052816000526040600020818154811061088d57600080fd5b9060005260206000200160009250925050505481565b600460009054906101000a900473ffffffffffffffffffffffffffffffffffffffff1681565b600081511161090d576040517f08c379a000000000000000000000000000000000000000000000000000000000815260040161090490613018565b60405180910390fd5b60005b815181101561097557610962828281518110610955577f4e487b7100000000000000000000000000000000000000000000000000000000600052603260045260246000fd5b6020026020010151610a01565b808061096d9061358b565b915050610910565b5050565b610981612452565b73ffffffffffffffffffffffffffffffffffffffff1661099f61158f565b73ffffffffffffffffffffffffffffffffffffffff16146109f5576040517f08c379a00000000000000000000000000000000000000000000000000000000081526004016109ec90613098565b60405180910390fd5b6109ff600061245a565b565b60006003600083815260200190815260200160002090503373ffffffffffffffffffffffffffffffffffffffff168160000160019054906101000a900473ffffffffffffffffffffffffffffffffffffffff1673ffffffffffffffffffffffffffffffffffffffff1614610aaa576040517f08c379a0000000000000000000000000000000000000000000000000000000008152600401610aa1906130d8565b60405180910390fd5b6000816007015414610af1576040517f08c379a0000000000000000000000000000000000000000000000000000000008152600401610ae890612fb8565b60405180910390fd5b600015158160080160149054906101000a900460ff16151514610b49576040517f08c379a0000000000000000000000000000000000000000000000000000000008152600401610b40906130f8565b60405180910390fd5b600015158160080160159054906101000a900460ff16151514610ba1576040517f08c379a0000000000000000000000000000000000000000000000000000000008152600401610b9890613058565b60405180910390fd5b60008160010160009054906101000a900473ffffffffffffffffffffffffffffffffffffffff1690506000826002015490506000836006018190555060018360080160156101000a81548160ff0219169083151502179055508173ffffffffffffffffffffffffffffffffffffffff166342842e0e3033846040518463ffffffff1660e01b8152600401610c3793929190612e8b565b600060405180830381600087803b158015610c5157600080fd5b505af1158015610c65573d6000803e3d6000fd5b505050503373ffffffffffffffffffffffffffffffffffffffff16848373ffffffffffffffffffffffffffffffffffffffff167f856ac238bc6f4bb0c966003f34f148bf0ef3b60f266e451474de23ff78196c8b84604051610cc79190613173565b60405180910390a450505050565b6000855111610d19576040517f08c379a0000000000000000000000000000000000000000000000000000000008152600401610d1090613018565b60405180910390fd5b6000811415610d935760005b8551811015610d9157610d7e600088888481518110610d6d577f4e487b7100000000000000000000000000000000000000000000000000000000600052603260045260246000fd5b60200260200101518860008861201b565b8080610d899061358b565b915050610d25565b505b6001811415610e4e57828411610dde576040517f08c379a0000000000000000000000000000000000000000000000000000000008152600401610dd590613118565b60405180910390fd5b60005b8551811015610e4c57610e39600188888481518110610e29577f4e487b7100000000000000000000000000000000000000000000000000000000600052603260045260246000fd5b602002602001015188888861201b565b8080610e449061358b565b915050610de1565b505b6002811415610ec85760005b8551811015610ec657610eb3600288888481518110610ea2577f4e487b7100000000000000000000000000000000000000000000000000000000600052603260045260246000fd5b60200260200101518860008861201b565b8080610ebe9061358b565b915050610e5a565b505b505050505050565b600460149054906101000a900461ffff1681565b610ef4600085858560008661201b565b50505050565b610f02612452565b73ffffffffffffffffffffffffffffffffffffffff16610f2061158f565b73ffffffffffffffffffffffffffffffffffffffff1614610f76576040517f08c379a0000000000000000000000000000000000000000000000000000000008152600401610f6d90613098565b60405180910390fd5b80600460006101000a81548173ffffffffffffffffffffffffffffffffffffffff021916908373ffffffffffffffffffffffffffffffffffffffff16021790555050565b6000600260008373ffffffffffffffffffffffffffffffffffffffff1673ffffffffffffffffffffffffffffffffffffffff168152602001908152602001600020805490509050919050565b6000600360008381526020019081526020016000209050600081600601549050600081141561106a576040517f08c379a0000000000000000000000000000000000000000000000000000000008152600401611061906130b8565b60405180910390fd5b600015158260080160159054906101000a900460ff161515146110c2576040517f08c379a00000000000000000000000000000000000000000000000000000000081526004016110b9906130b8565b60405180910390fd5b438111611104576040517f08c379a00000000000000000000000000000000000000000000000000000000081526004016110fb90612ff8565b60405180910390fd5b60028260000160009054906101000a900460ff1660ff161061115b576040517f08c379a000000000000000000000000000000000000000000000000000000000815260040161115290612fd8565b60405180910390fd5b600015158260080160149054906101000a900460ff161515146111b3576040517f08c379a00000000000000000000000000000000000000000000000000000000081526004016111aa906130f8565b60405180910390fd5b60006111be84610636565b905080341015611203576040517f08c379a00000000000000000000000000000000000000000000000000000000081526004016111fa90612f58565b60405180910390fd5b60018360080160146101000a81548160ff0219169083151502179055506000612710600460149054906101000a900461ffff1661ffff168361124591906133ee565b61124f91906133bd565b90508360000160019054906101000a900473ffffffffffffffffffffffffffffffffffffffff1673ffffffffffffffffffffffffffffffffffffffff166108fc828461129b9190613448565b9081150290604051600060405180830381858888f193505050501580156112c6573d6000803e3d6000fd5b50600460009054906101000a900473ffffffffffffffffffffffffffffffffffffffff1673ffffffffffffffffffffffffffffffffffffffff166108fc829081150290604051600060405180830381858888f1935050505015801561132f573d6000803e3d6000fd5b508134111561138b573373ffffffffffffffffffffffffffffffffffffffff166108fc833461135e9190613448565b9081150290604051600060405180830381858888f19350505050158015611389573d6000803e3d6000fd5b505b8360010160009054906101000a900473ffffffffffffffffffffffffffffffffffffffff1673ffffffffffffffffffffffffffffffffffffffff166342842e0e303387600201546040518463ffffffff1660e01b81526004016113f093929190612e8b565b600060405180830381600087803b15801561140a57600080fd5b505af115801561141e573d6000803e3d6000fd5b505050503373ffffffffffffffffffffffffffffffffffffffff16858560010160009054906101000a900473ffffffffffffffffffffffffffffffffffffffff1673ffffffffffffffffffffffffffffffffffffffff167f37a6d1163573be2522695f96cbee3037bf297187c0378e8903ac1ae0192f699f87600201548860000160019054906101000a900473ffffffffffffffffffffffffffffffffffffffff16876040516114d09392919061318e565b60405180910390a45050505050565b6000815111611523576040517f08c379a000000000000000000000000000000000000000000000000000000000815260040161151a90613018565b60405180910390fd5b60005b815181101561158b5761157882828151811061156b577f4e487b7100000000000000000000000000000000000000000000000000000000600052603260045260246000fd5b6020026020010151611a8c565b80806115839061358b565b915050611526565b5050565b60008060009054906101000a900473ffffffffffffffffffffffffffffffffffffffff16905090565b600060036000838152602001908152602001600020905060008160060154905060008260070154905060008360080160009054906101000a900473ffffffffffffffffffffffffffffffffffffffff16905060028460000160009054906101000a900460ff1660ff1614611661576040517f08c379a000000000000000000000000000000000000000000000000000000000815260040161165890612ef8565b60405180910390fd5b600015158460080160159054906101000a900460ff161515146116b9576040517f08c379a00000000000000000000000000000000000000000000000000000000081526004016116b0906130b8565b60405180910390fd5b824311156116fc576040517f08c379a00000000000000000000000000000000000000000000000000000000081526004016116f390612ff8565b60405180910390fd5b3373ffffffffffffffffffffffffffffffffffffffff168460000160019054906101000a900473ffffffffffffffffffffffffffffffffffffffff1673ffffffffffffffffffffffffffffffffffffffff16141561178f576040517f08c379a000000000000000000000000000000000000000000000000000000000815260040161178690613078565b60405180910390fd5b600082146117f6576014826117a491906133bd565b826117af9190613367565b3410156117f1576040517f08c379a00000000000000000000000000000000000000000000000000000000081526004016117e890612f98565b60405180910390fd5b61184a565b8360030154341015801561180a5750600034115b611849576040517f08c379a000000000000000000000000000000000000000000000000000000000815260040161184090612f98565b60405180910390fd5b5b603c836118579190613448565b43111561187457603c8361186b9190613367565b84600601819055505b338460080160006101000a81548173ffffffffffffffffffffffffffffffffffffffff021916908373ffffffffffffffffffffffffffffffffffffffff16021790555034846007018190555060008214611910578073ffffffffffffffffffffffffffffffffffffffff166108fc839081150290604051600060405180830381858888f1935050505015801561190e573d6000803e3d6000fd5b505b3373ffffffffffffffffffffffffffffffffffffffff16858560010160009054906101000a900473ffffffffffffffffffffffffffffffffffffffff1673ffffffffffffffffffffffffffffffffffffffff167f7f99059564a74b5d2e3fbf994dec403ab0af5688c9a4e86ca2a933688eaf223b8760020154346040516119989291906131c5565b60405180910390a45050505050565b6119af612452565b73ffffffffffffffffffffffffffffffffffffffff166119cd61158f565b73ffffffffffffffffffffffffffffffffffffffff1614611a23576040517f08c379a0000000000000000000000000000000000000000000000000000000008152600401611a1a90613098565b60405180910390fd5b6127108161ffff161115611a6c576040517f08c379a0000000000000000000000000000000000000000000000000000000008152600401611a6390612f38565b60405180910390fd5b80600460146101000a81548161ffff021916908361ffff16021790555050565b600060036000838152602001908152602001600020905060008160000160019054906101000a900473ffffffffffffffffffffffffffffffffffffffff16905060008260080160009054906101000a900473ffffffffffffffffffffffffffffffffffffffff169050600015158360080160149054906101000a900460ff16151514611b4d576040517f08c379a0000000000000000000000000000000000000000000000000000000008152600401611b44906130f8565b60405180910390fd5b600015158360080160159054906101000a900460ff16151514611ba5576040517f08c379a0000000000000000000000000000000000000000000000000000000008152600401611b9c90613058565b60405180910390fd5b3373ffffffffffffffffffffffffffffffffffffffff168273ffffffffffffffffffffffffffffffffffffffff161480611c0a57503373ffffffffffffffffffffffffffffffffffffffff168173ffffffffffffffffffffffffffffffffffffffff16145b611c49576040517f08c379a0000000000000000000000000000000000000000000000000000000008152600401611c40906130d8565b60405180910390fd5b60028360000160009054906101000a900460ff1660ff1614611ca0576040517f08c379a0000000000000000000000000000000000000000000000000000000008152600401611c9790613138565b60405180910390fd5b82600601544311611ce6576040517f08c379a0000000000000000000000000000000000000000000000000000000008152600401611cdd90613038565b60405180910390fd5b60008360010160009054906101000a900473ffffffffffffffffffffffffffffffffffffffff1690506000846002015490506000856007015490506000612710600460149054906101000a900461ffff1661ffff1683611d4691906133ee565b611d5091906133bd565b905060018760080160146101000a81548160ff0219169083151502179055508573ffffffffffffffffffffffffffffffffffffffff166108fc8284611d959190613448565b9081150290604051600060405180830381858888f19350505050158015611dc0573d6000803e3d6000fd5b50600460009054906101000a900473ffffffffffffffffffffffffffffffffffffffff1673ffffffffffffffffffffffffffffffffffffffff166108fc829081150290604051600060405180830381858888f19350505050158015611e29573d6000803e3d6000fd5b508373ffffffffffffffffffffffffffffffffffffffff166342842e0e3087866040518463ffffffff1660e01b8152600401611e6793929190612e8b565b600060405180830381600087803b158015611e8157600080fd5b505af1158015611e95573d6000803e3d6000fd5b505050508473ffffffffffffffffffffffffffffffffffffffff16888573ffffffffffffffffffffffffffffffffffffffff167f37a6d1163573be2522695f96cbee3037bf297187c0378e8903ac1ae0192f699f868a87604051611efb9392919061318e565b60405180910390a45050505050505050565b611f15612452565b73ffffffffffffffffffffffffffffffffffffffff16611f3361158f565b73ffffffffffffffffffffffffffffffffffffffff1614611f89576040517f08c379a0000000000000000000000000000000000000000000000000000000008152600401611f8090613098565b60405180910390fd5b600073ffffffffffffffffffffffffffffffffffffffff168173ffffffffffffffffffffffffffffffffffffffff161415611ff9576040517f08c379a0000000000000000000000000000000000000000000000000000000008152600401611ff090612f78565b60405180910390fd5b6120028161245a565b50565b612015600285858560008661201b565b50505050565b43811161205d576040517f08c379a000000000000000000000000000000000000000000000000000000000815260040161205490612f18565b60405180910390fd5b600061206a86863361251e565b90506040518061018001604052808860ff1681526020013373ffffffffffffffffffffffffffffffffffffffff1681526020018773ffffffffffffffffffffffffffffffffffffffff16815260200186815260200185815260200184815260200143815260200183815260200160008152602001600073ffffffffffffffffffffffffffffffffffffffff168152602001600015158152602001600015158152506003600083815260200190815260200160002060008201518160000160006101000a81548160ff021916908360ff16021790555060208201518160000160016101000a81548173ffffffffffffffffffffffffffffffffffffffff021916908373ffffffffffffffffffffffffffffffffffffffff16021790555060408201518160010160006101000a81548173ffffffffffffffffffffffffffffffffffffffff021916908373ffffffffffffffffffffffffffffffffffffffff160217905550606082015181600201556080820151816003015560a0820151816004015560c0820151816005015560e0820151816006015561010082015181600701556101208201518160080160006101000a81548173ffffffffffffffffffffffffffffffffffffffff021916908373ffffffffffffffffffffffffffffffffffffffff1602179055506101408201518160080160146101000a81548160ff0219169083151502179055506101608201518160080160156101000a81548160ff021916908315150217905550905050600160008773ffffffffffffffffffffffffffffffffffffffff1673ffffffffffffffffffffffffffffffffffffffff1681526020019081526020016000206000868152602001908152602001600020819080600181540180825580915050600190039060005260206000200160009091909190915055600260003373ffffffffffffffffffffffffffffffffffffffff1673ffffffffffffffffffffffffffffffffffffffff1681526020019081526020016000208190806001815401808255809150506001900390600052602060002001600090919091909150558573ffffffffffffffffffffffffffffffffffffffff166342842e0e3330886040518463ffffffff1660e01b81526004016123b193929190612e8b565b600060405180830381600087803b1580156123cb57600080fd5b505af11580156123df573d6000803e3d6000fd5b505050503373ffffffffffffffffffffffffffffffffffffffff16818773ffffffffffffffffffffffffffffffffffffffff167f165b17602125a20b222f9736f06d776e39507d7dc60ddef32ccc23ea2f1b50e5886040516124419190613173565b60405180910390a450505050505050565b600033905090565b60008060009054906101000a900473ffffffffffffffffffffffffffffffffffffffff169050816000806101000a81548173ffffffffffffffffffffffffffffffffffffffff021916908373ffffffffffffffffffffffffffffffffffffffff1602179055508173ffffffffffffffffffffffffffffffffffffffff168173ffffffffffffffffffffffffffffffffffffffff167f8be0079c531659141344cd1fd0a4f28419497f9722a3daafe3b4186f6b6457e060405160405180910390a35050565b6000438484846040516020016125379493929190612e22565b6040516020818303038152906040528051906020012090509392505050565b6000612569612564846132cd565b6132a8565b9050808382526020820190508285602086028201111561258857600080fd5b60005b858110156125b8578161259e88826126d5565b84526020840193506020830192505060018101905061258b565b5050509392505050565b60006125d56125d0846132f9565b6132a8565b905080838252602082019050828560208602820111156125f457600080fd5b60005b85811015612624578161260a888261273e565b8452602084019350602083019250506001810190506125f7565b5050509392505050565b600061264161263c84613325565b6132a8565b90508281526020810184848401111561265957600080fd5b61266484828561354b565b509392505050565b60008135905061267b816139de565b92915050565b600082601f83011261269257600080fd5b81356126a2848260208601612556565b91505092915050565b600082601f8301126126bc57600080fd5b81356126cc8482602086016125c2565b91505092915050565b6000813590506126e4816139f5565b92915050565b600082601f8301126126fb57600080fd5b813561270b84826020860161262e565b91505092915050565b60008135905061272381613a0c565b92915050565b60008135905061273881613a23565b92915050565b60008135905061274d81613a3a565b92915050565b60006020828403121561276557600080fd5b60006127738482850161266c565b91505092915050565b6000806000806080858703121561279257600080fd5b60006127a08782880161266c565b94505060206127b18782880161266c565b93505060406127c28782880161273e565b925050606085013567ffffffffffffffff8111156127df57600080fd5b6127eb878288016126ea565b91505092959194509250565b6000806040838503121561280a57600080fd5b60006128188582860161266c565b92505060206128298582860161273e565b9150509250929050565b60006020828403121561284557600080fd5b600082013567ffffffffffffffff81111561285f57600080fd5b61286b84828501612681565b91505092915050565b60006020828403121561288657600080fd5b6000612894848285016126d5565b91505092915050565b60008060008060008060c087890312156128b657600080fd5b60006128c489828a01612714565b965050602087013567ffffffffffffffff8111156128e157600080fd5b6128ed89828a016126ab565b95505060406128fe89828a0161273e565b945050606061290f89828a0161273e565b935050608061292089828a0161273e565b92505060a061293189828a0161273e565b9150509295509295509295565b6000806040838503121561295157600080fd5b600061295f85828601612714565b92505060206129708582860161273e565b9150509250929050565b60008060006060848603121561298f57600080fd5b600061299d86828701612714565b93505060206129ae8682870161273e565b92505060406129bf8682870161273e565b9150509250925092565b600080600080608085870312156129df57600080fd5b60006129ed87828801612714565b94505060206129fe8782880161273e565b9350506040612a0f8782880161273e565b9250506060612a208782880161273e565b91505092959194509250565b600080600080600060a08688031215612a4457600080fd5b6000612a5288828901612714565b9550506020612a638882890161273e565b9450506040612a748882890161273e565b9350506060612a858882890161273e565b9250506080612a968882890161273e565b9150509295509295909350565b600060208284031215612ab557600080fd5b6000612ac384828501612729565b91505092915050565b612ad58161347c565b82525050565b612aec612ae78261347c565b6135d4565b82525050565b612afb8161348e565b82525050565b612b0a8161349a565b82525050565b612b19816134a4565b82525050565b612b2881613527565b82525050565b612b3f612b3a82613527565b6135d4565b82525050565b6000612b52601883613356565b9150612b5d826136ad565b602082019050919050565b6000612b75601f83613356565b9150612b80826136d6565b602082019050919050565b6000612b98601d83613356565b9150612ba3826136ff565b602082019050919050565b6000612bbb600b83613356565b9150612bc682613728565b602082019050919050565b6000612bde602683613356565b9150612be982613751565b604082019050919050565b6000612c01600d83613356565b9150612c0c826137a0565b602082019050919050565b6000612c24600d83613356565b9150612c2f826137c9565b602082019050919050565b6000612c47601683613356565b9150612c52826137f2565b602082019050919050565b6000612c6a601183613356565b9150612c758261381b565b602082019050919050565b6000612c8d601e83613356565b9150612c9882613844565b602082019050919050565b6000612cb0601583613356565b9150612cbb8261386d565b602082019050919050565b6000612cd3601183613356565b9150612cde82613896565b602082019050919050565b6000612cf6601d83613356565b9150612d01826138bf565b602082019050919050565b6000612d19602083613356565b9150612d24826138e8565b602082019050919050565b6000612d3c600e83613356565b9150612d4782613911565b602082019050919050565b6000612d5f600d83613356565b9150612d6a8261393a565b602082019050919050565b6000612d82600c83613356565b9150612d8d82613963565b602082019050919050565b6000612da5601b83613356565b9150612db08261398c565b602082019050919050565b6000612dc8601483613356565b9150612dd3826139b5565b602082019050919050565b612de7816134e2565b82525050565b612df681613510565b82525050565b612e0d612e0882613510565b6135f8565b82525050565b612e1c8161351a565b82525050565b6000612e2e8287612dfc565b602082019150612e3e8286612b2e565b601482019150612e4e8285612dfc565b602082019150612e5e8284612adb565b60148201915081905095945050505050565b6000602082019050612e856000830184612acc565b92915050565b6000606082019050612ea06000830186612acc565b612ead6020830185612acc565b612eba6040830184612ded565b949350505050565b6000602082019050612ed76000830184612b01565b92915050565b6000602082019050612ef26000830184612b10565b92915050565b60006020820190508181036000830152612f1181612b45565b9050919050565b60006020820190508181036000830152612f3181612b68565b9050919050565b60006020820190508181036000830152612f5181612b8b565b9050919050565b60006020820190508181036000830152612f7181612bae565b9050919050565b60006020820190508181036000830152612f9181612bd1565b9050919050565b60006020820190508181036000830152612fb181612bf4565b9050919050565b60006020820190508181036000830152612fd181612c17565b9050919050565b60006020820190508181036000830152612ff181612c3a565b9050919050565b6000602082019050818103600083015261301181612c5d565b9050919050565b6000602082019050818103600083015261303181612c80565b9050919050565b6000602082019050818103600083015261305181612ca3565b9050919050565b6000602082019050818103600083015261307181612cc6565b9050919050565b6000602082019050818103600083015261309181612ce9565b9050919050565b600060208201905081810360008301526130b181612d0c565b9050919050565b600060208201905081810360008301526130d181612d2f565b9050919050565b600060208201905081810360008301526130f181612d52565b9050919050565b6000602082019050818103600083015261311181612d75565b9050919050565b6000602082019050818103600083015261313181612d98565b9050919050565b6000602082019050818103600083015261315181612dbb565b9050919050565b600060208201905061316d6000830184612dde565b92915050565b60006020820190506131886000830184612ded565b92915050565b60006060820190506131a36000830186612ded565b6131b06020830185612acc565b6131bd6040830184612ded565b949350505050565b60006040820190506131da6000830185612ded565b6131e76020830184612ded565b9392505050565b600061018082019050613204600083018f612e13565b613211602083018e612acc565b61321e604083018d612b1f565b61322b606083018c612ded565b613238608083018b612ded565b61324560a083018a612ded565b61325260c0830189612ded565b61325f60e0830188612ded565b61326d610100830187612ded565b61327b610120830186612acc565b613289610140830185612af2565b613297610160830184612af2565b9d9c50505050505050505050505050565b60006132b26132c3565b90506132be828261355a565b919050565b6000604051905090565b600067ffffffffffffffff8211156132e8576132e7613660565b5b602082029050602081019050919050565b600067ffffffffffffffff82111561331457613313613660565b5b602082029050602081019050919050565b600067ffffffffffffffff8211156133405761333f613660565b5b6133498261368f565b9050602081019050919050565b600082825260208201905092915050565b600061337282613510565b915061337d83613510565b9250827fffffffffffffffffffffffffffffffffffffffffffffffffffffffffffffffff038211156133b2576133b1613602565b5b828201905092915050565b60006133c882613510565b91506133d383613510565b9250826133e3576133e2613631565b5b828204905092915050565b60006133f982613510565b915061340483613510565b9250817fffffffffffffffffffffffffffffffffffffffffffffffffffffffffffffffff048311821515161561343d5761343c613602565b5b828202905092915050565b600061345382613510565b915061345e83613510565b92508282101561347157613470613602565b5b828203905092915050565b6000613487826134f0565b9050919050565b60008115159050919050565b6000819050919050565b60007fffffffff0000000000000000000000000000000000000000000000000000000082169050919050565b60006134db8261347c565b9050919050565b600061ffff82169050919050565b600073ffffffffffffffffffffffffffffffffffffffff82169050919050565b6000819050919050565b600060ff82169050919050565b600061353282613539565b9050919050565b6000613544826134f0565b9050919050565b82818337600083830152505050565b6135638261368f565b810181811067ffffffffffffffff8211171561358257613581613660565b5b80604052505050565b600061359682613510565b91507fffffffffffffffffffffffffffffffffffffffffffffffffffffffffffffffff8214156135c9576135c8613602565b5b600182019050919050565b60006135df826135e6565b9050919050565b60006135f1826136a0565b9050919050565b6000819050919050565b7f4e487b7100000000000000000000000000000000000000000000000000000000600052601160045260246000fd5b7f4e487b7100000000000000000000000000000000000000000000000000000000600052601260045260246000fd5b7f4e487b7100000000000000000000000000000000000000000000000000000000600052604160045260246000fd5b6000601f19601f8301169050919050565b60008160601b9050919050565b7f6f6e6c7920666f7220456e676c6973682041756374696f6e0000000000000000600082015250565b7f4475726174696f6e206d757374206265206d6f7265207468616e207a65726f00600082015250565b7f496e7075742076616c7565206973206d6f7265207468616e2031303025000000600082015250565b7f5072696365206572726f72000000000000000000000000000000000000000000600082015250565b7f4f776e61626c653a206e6577206f776e657220697320746865207a65726f206160008201527f6464726573730000000000000000000000000000000000000000000000000000602082015250565b7f6c6f772070726963652062696400000000000000000000000000000000000000600082015250565b7f42696464696e6720657869737400000000000000000000000000000000000000600082015250565b7f49742773206120456e676c6973682041756374696f6e00000000000000000000600082015250565b7f41756374696f6e2068617320656e646564000000000000000000000000000000600082015250565b7f4174206c656173742031204944206d75737420626520737570706c6965640000600082015250565b7f41756374696f6e20686173206e6f7420656e6465640000000000000000000000600082015250565b7f416c72656164792063616e63656c6c6564000000000000000000000000000000600082015250565b7f43616e206e6f7420626964206f6e20796f7572206f776e206f72646572000000600082015250565b7f4f776e61626c653a2063616c6c6572206973206e6f7420746865206f776e6572600082015250565b7f43616e63656c6564206f72646572000000000000000000000000000000000000600082015250565b7f4163636573732064656e69656400000000000000000000000000000000000000600082015250565b7f416c726561647920736f6c640000000000000000000000000000000000000000600082015250565b7f456e6420707269636520686967686572207468616e2073746172740000000000600082015250565b7f456e676c6973682041756374696f6e206f6e6c79000000000000000000000000600082015250565b6139e78161347c565b81146139f257600080fd5b50565b6139fe8161349a565b8114613a0957600080fd5b50565b613a15816134d0565b8114613a2057600080fd5b50565b613a2c816134e2565b8114613a3757600080fd5b50565b613a4381613510565b8114613a4e57600080fd5b5056fea264697066735822122005972b6523c179c473e33acaca250e1c5d585995dfd9f37c22af10214bb4bba664736f6c63430008040033",
    "linkReferences": {},
    "deployedLinkReferences": {}
}